{
  "_format": "hh3-artifact-1",
  "contractName": "ArenaVault",
  "sourceName": "contracts/ArenaVault.sol",
  "abi": [
    {
      "inputs": [],
      "stateMutability": "nonpayable",
      "type": "constructor"
    },
    {
      "anonymous": false,
      "inputs": [
        {
          "indexed": true,
          "internalType": "address",
          "name": "user",
          "type": "address"
        },
        {
          "indexed": false,
          "internalType": "uint256",
          "name": "amount",
          "type": "uint256"
        }
      ],
      "name": "Deposited",
      "type": "event"
    },
    {
      "anonymous": false,
      "inputs": [
        {
          "indexed": true,
          "internalType": "address",
          "name": "user",
          "type": "address"
        },
        {
          "indexed": false,
          "internalType": "uint256",
          "name": "amount",
          "type": "uint256"
        }
      ],
      "name": "Withdrawn",
      "type": "event"
    },
    {
      "inputs": [
        {
          "internalType": "address",
          "name": "",
          "type": "address"
        }
      ],
      "name": "balances",
      "outputs": [
        {
          "internalType": "uint256",
          "name": "",
          "type": "uint256"
        }
      ],
      "stateMutability": "view",
      "type": "function"
    },
    {
      "inputs": [],
      "name": "deposit",
      "outputs": [],
      "stateMutability": "payable",
      "type": "function"
    },
    {
      "inputs": [
        {
          "internalType": "address",
          "name": "user",
          "type": "address"
        }
      ],
      "name": "getBalance",
      "outputs": [
        {
          "internalType": "uint256",
          "name": "",
          "type": "uint256"
        }
      ],
      "stateMutability": "view",
      "type": "function"
    },
    {
      "inputs": [],
      "name": "owner",
      "outputs": [
        {
          "internalType": "address",
          "name": "",
          "type": "address"
        }
      ],
      "stateMutability": "view",
      "type": "function"
    },
    {
      "inputs": [
        {
          "internalType": "uint256",
          "name": "amount",
          "type": "uint256"
        }
      ],
      "name": "withdraw",
      "outputs": [],
      "stateMutability": "nonpayable",
      "type": "function"
    }
  ],
  "bytecode": "0x6080604052348015600e575f5ffd5b50335f5f6101000a81548173ffffffffffffffffffffffffffffffffffffffff021916908373ffffffffffffffffffffffffffffffffffffffff1602179055506106cd8061005b5f395ff3fe608060405260043610610049575f3560e01c806327e235e31461004d5780632e1a7d4d146100895780638da5cb5b146100b1578063d0e30db0146100db578063f8b2cb4f146100e5575b5f5ffd5b348015610058575f5ffd5b50610073600480360381019061006e919061044b565b610121565b604051610080919061048e565b60405180910390f35b348015610094575f5ffd5b506100af60048036038101906100aa91906104d1565b610136565b005b3480156100bc575f5ffd5b506100c561029e565b6040516100d2919061050b565b60405180910390f35b6100e36102c2565b005b3480156100f0575f5ffd5b5061010b6004803603810190610106919061044b565b6103a7565b604051610118919061048e565b60405180910390f35b6001602052805f5260405f205f915090505481565b8060015f3373ffffffffffffffffffffffffffffffffffffffff1673ffffffffffffffffffffffffffffffffffffffff1681526020019081526020015f205410156101b6576040517f08c379a00000000000000000000000000000000000000000000000000000000081526004016101ad9061057e565b60405180910390fd5b8060015f3373ffffffffffffffffffffffffffffffffffffffff1673ffffffffffffffffffffffffffffffffffffffff1681526020019081526020015f205f82825461020291906105c9565b925050819055503373ffffffffffffffffffffffffffffffffffffffff166108fc8290811502906040515f60405180830381858888f1935050505015801561024c573d5f5f3e3d5ffd5b503373ffffffffffffffffffffffffffffffffffffffff167f7084f5476618d8e60b11ef0d7d3f06914655adb8793e28ff7f018d4c76d505d582604051610293919061048e565b60405180910390a250565b5f5f9054906101000a900473ffffffffffffffffffffffffffffffffffffffff1681565b5f3411610304576040517f08c379a00000000000000000000000000000000000000000000000000000000081526004016102fb90610646565b60405180910390fd5b3460015f3373ffffffffffffffffffffffffffffffffffffffff1673ffffffffffffffffffffffffffffffffffffffff1681526020019081526020015f205f8282546103509190610664565b925050819055503373ffffffffffffffffffffffffffffffffffffffff167f2da466a7b24304f47e87fa2e1e5a81b9831ce54fec19055ce277ca2f39ba42c43460405161039d919061048e565b60405180910390a2565b5f60015f8373ffffffffffffffffffffffffffffffffffffffff1673ffffffffffffffffffffffffffffffffffffffff1681526020019081526020015f20549050919050565b5f5ffd5b5f73ffffffffffffffffffffffffffffffffffffffff82169050919050565b5f61041a826103f1565b9050919050565b61042a81610410565b8114610434575f5ffd5b50565b5f8135905061044581610421565b92915050565b5f602082840312156104605761045f6103ed565b5b5f61046d84828501610437565b91505092915050565b5f819050919050565b61048881610476565b82525050565b5f6020820190506104a15f83018461047f565b92915050565b6104b081610476565b81146104ba575f5ffd5b50565b5f813590506104cb816104a7565b92915050565b5f602082840312156104e6576104e56103ed565b5b5f6104f3848285016104bd565b91505092915050565b61050581610410565b82525050565b5f60208201905061051e5f8301846104fc565b92915050565b5f82825260208201905092915050565b7f496e73756666696369656e742062616c616e63650000000000000000000000005f82015250565b5f610568601483610524565b915061057382610534565b602082019050919050565b5f6020820190508181035f8301526105958161055c565b9050919050565b7f4e487b71000000000000000000000000000000000000000000000000000000005f52601160045260245ffd5b5f6105d382610476565b91506105de83610476565b92508282039050818111156105f6576105f561059c565b5b92915050565b7f4e6f204554482073656e740000000000000000000000000000000000000000005f82015250565b5f610630600b83610524565b915061063b826105fc565b602082019050919050565b5f6020820190508181035f83015261065d81610624565b9050919050565b5f61066e82610476565b915061067983610476565b92508282019050808211156106915761069061059c565b5b9291505056fea2646970667358221220a8720037016d161c0a9d007a703d5cf5d60bd330b4d25621737deae8da6c963764736f6c634300081c0033",
  "linkReferences": {},
  "deployedLinkReferences": {},
  "immutableReferences": {},
  "inputSourceName": "project/contracts/ArenaVault.sol",
  "buildInfoId": "solc-0_8_28-4152898f47c6def75fc2ed060d45512920d14afc"
}