{
  "_format": "hh3-artifact-1",
  "contractName": "ArenaVaultV2",
  "sourceName": "contracts/ArenaVaultV2.sol",
  "abi": [
    {
      "inputs": [
        {
          "internalType": "address",
          "name": "_pythAddress",
          "type": "address"
        },
        {
          "internalType": "address",
          "name": "",
          "type": "address"
        }
      ],
      "stateMutability": "nonpayable",
      "type": "constructor"
    },
    {
      "anonymous": false,
      "inputs": [
        {
          "indexed": true,
          "internalType": "uint256",
          "name": "battleId",
          "type": "uint256"
        },
        {
          "indexed": true,
          "internalType": "address",
          "name": "player",
          "type": "address"
        },
        {
          "indexed": false,
          "internalType": "uint256",
          "name": "prediction",
          "type": "uint256"
        },
        {
          "indexed": false,
          "internalType": "bool",
          "name": "isHigher",
          "type": "bool"
        },
        {
          "indexed": false,
          "internalType": "uint256",
          "name": "stake",
          "type": "uint256"
        },
        {
          "indexed": false,
          "internalType": "uint256",
          "name": "duration",
          "type": "uint256"
        }
      ],
      "name": "BattleCreated",
      "type": "event"
    },
    {
      "anonymous": false,
      "inputs": [
        {
          "indexed": true,
          "internalType": "uint256",
          "name": "battleId",
          "type": "uint256"
        },
        {
          "indexed": true,
          "internalType": "address",
          "name": "winner",
          "type": "address"
        },
        {
          "indexed": false,
          "internalType": "int64",
          "name": "finalPrice",
          "type": "int64"
        }
      ],
      "name": "BattleResolved",
      "type": "event"
    },
    {
      "anonymous": false,
      "inputs": [
        {
          "indexed": true,
          "internalType": "string",
          "name": "gameId",
          "type": "string"
        },
        {
          "indexed": true,
          "internalType": "address",
          "name": "player",
          "type": "address"
        },
        {
          "indexed": false,
          "internalType": "uint256",
          "name": "entryFee",
          "type": "uint256"
        },
        {
          "indexed": false,
          "internalType": "uint256",
          "name": "guess",
          "type": "uint256"
        }
      ],
      "name": "LuckyGameCreated",
      "type": "event"
    },
    {
      "anonymous": false,
      "inputs": [
        {
          "indexed": true,
          "internalType": "string",
          "name": "gameId",
          "type": "string"
        },
        {
          "indexed": true,
          "internalType": "address",
          "name": "player",
          "type": "address"
        },
        {
          "indexed": false,
          "internalType": "uint256",
          "name": "randomNumber",
          "type": "uint256"
        },
        {
          "indexed": false,
          "internalType": "bool",
          "name": "winner",
          "type": "bool"
        }
      ],
      "name": "LuckyGameResolved",
      "type": "event"
    },
    {
      "anonymous": false,
      "inputs": [
        {
          "indexed": true,
          "internalType": "address",
          "name": "oldResolver",
          "type": "address"
        },
        {
          "indexed": true,
          "internalType": "address",
          "name": "newResolver",
          "type": "address"
        }
      ],
      "name": "ResolverUpdated",
      "type": "event"
    },
    {
      "stateMutability": "payable",
      "type": "fallback"
    },
    {
      "inputs": [
        {
          "internalType": "uint256",
          "name": "",
          "type": "uint256"
        }
      ],
      "name": "battles",
      "outputs": [
        {
          "internalType": "address",
          "name": "player",
          "type": "address"
        },
        {
          "internalType": "uint256",
          "name": "prediction",
          "type": "uint256"
        },
        {
          "internalType": "bool",
          "name": "isHigher",
          "type": "bool"
        },
        {
          "internalType": "uint256",
          "name": "stake",
          "type": "uint256"
        },
        {
          "internalType": "uint256",
          "name": "startTime",
          "type": "uint256"
        },
        {
          "internalType": "uint256",
          "name": "duration",
          "type": "uint256"
        },
        {
          "internalType": "bool",
          "name": "resolved",
          "type": "bool"
        },
        {
          "internalType": "int64",
          "name": "finalPrice",
          "type": "int64"
        },
        {
          "internalType": "address",
          "name": "winner",
          "type": "address"
        },
        {
          "internalType": "uint256",
          "name": "createdAt",
          "type": "uint256"
        }
      ],
      "stateMutability": "view",
      "type": "function"
    },
    {
      "inputs": [
        {
          "internalType": "uint256",
          "name": "_prediction",
          "type": "uint256"
        },
        {
          "internalType": "bool",
          "name": "_isHigher",
          "type": "bool"
        },
        {
          "internalType": "uint256",
          "name": "_duration",
          "type": "uint256"
        }
      ],
      "name": "createBattle",
      "outputs": [],
      "stateMutability": "payable",
      "type": "function"
    },
    {
      "inputs": [
        {
          "internalType": "string",
          "name": "_gameId",
          "type": "string"
        },
        {
          "internalType": "address",
          "name": "_player",
          "type": "address"
        },
        {
          "internalType": "uint256",
          "name": "_guess",
          "type": "uint256"
        },
        {
          "internalType": "uint256",
          "name": "_minRange",
          "type": "uint256"
        },
        {
          "internalType": "uint256",
          "name": "_maxRange",
          "type": "uint256"
        },
        {
          "internalType": "uint256",
          "name": "_expiresAt",
          "type": "uint256"
        }
      ],
      "name": "createLuckyGame",
      "outputs": [],
      "stateMutability": "payable",
      "type": "function"
    },
    {
      "inputs": [],
      "name": "emergencyWithdraw",
      "outputs": [],
      "stateMutability": "nonpayable",
      "type": "function"
    },
    {
      "inputs": [],
      "name": "getAllBattles",
      "outputs": [
        {
          "components": [
            {
              "internalType": "address",
              "name": "player",
              "type": "address"
            },
            {
              "internalType": "uint256",
              "name": "prediction",
              "type": "uint256"
            },
            {
              "internalType": "bool",
              "name": "isHigher",
              "type": "bool"
            },
            {
              "internalType": "uint256",
              "name": "stake",
              "type": "uint256"
            },
            {
              "internalType": "uint256",
              "name": "startTime",
              "type": "uint256"
            },
            {
              "internalType": "uint256",
              "name": "duration",
              "type": "uint256"
            },
            {
              "internalType": "bool",
              "name": "resolved",
              "type": "bool"
            },
            {
              "internalType": "int64",
              "name": "finalPrice",
              "type": "int64"
            },
            {
              "internalType": "address",
              "name": "winner",
              "type": "address"
            },
            {
              "internalType": "uint256",
              "name": "createdAt",
              "type": "uint256"
            }
          ],
          "internalType": "struct ArenaVaultV2.Battle[]",
          "name": "",
          "type": "tuple[]"
        }
      ],
      "stateMutability": "view",
      "type": "function"
    },
    {
      "inputs": [],
      "name": "getAllLuckyGameIds",
      "outputs": [
        {
          "internalType": "string[]",
          "name": "",
          "type": "string[]"
        }
      ],
      "stateMutability": "view",
      "type": "function"
    },
    {
      "inputs": [],
      "name": "getBalance",
      "outputs": [
        {
          "internalType": "uint256",
          "name": "",
          "type": "uint256"
        }
      ],
      "stateMutability": "view",
      "type": "function"
    },
    {
      "inputs": [],
      "name": "getBattleCount",
      "outputs": [
        {
          "internalType": "uint256",
          "name": "",
          "type": "uint256"
        }
      ],
      "stateMutability": "view",
      "type": "function"
    },
    {
      "inputs": [
        {
          "internalType": "string",
          "name": "_gameId",
          "type": "string"
        }
      ],
      "name": "getLuckyGame",
      "outputs": [
        {
          "components": [
            {
              "internalType": "string",
              "name": "gameId",
              "type": "string"
            },
            {
              "internalType": "address",
              "name": "player",
              "type": "address"
            },
            {
              "internalType": "uint256",
              "name": "entryFee",
              "type": "uint256"
            },
            {
              "internalType": "uint256",
              "name": "guess",
              "type": "uint256"
            },
            {
              "internalType": "uint256",
              "name": "minRange",
              "type": "uint256"
            },
            {
              "internalType": "uint256",
              "name": "maxRange",
              "type": "uint256"
            },
            {
              "internalType": "uint256",
              "name": "randomNumber",
              "type": "uint256"
            },
            {
              "internalType": "bool",
              "name": "resolved",
              "type": "bool"
            },
            {
              "internalType": "bool",
              "name": "winner",
              "type": "bool"
            },
            {
              "internalType": "uint256",
              "name": "createdAt",
              "type": "uint256"
            },
            {
              "internalType": "uint256",
              "name": "expiresAt",
              "type": "uint256"
            }
          ],
          "internalType": "struct ArenaVaultV2.LuckyGame",
          "name": "",
          "type": "tuple"
        }
      ],
      "stateMutability": "view",
      "type": "function"
    },
    {
      "inputs": [],
      "name": "getLuckyGameCount",
      "outputs": [
        {
          "internalType": "uint256",
          "name": "",
          "type": "uint256"
        }
      ],
      "stateMutability": "view",
      "type": "function"
    },
    {
      "inputs": [
        {
          "internalType": "uint256",
          "name": "battleId",
          "type": "uint256"
        }
      ],
      "name": "isBattleExpired",
      "outputs": [
        {
          "internalType": "bool",
          "name": "",
          "type": "bool"
        }
      ],
      "stateMutability": "view",
      "type": "function"
    },
    {
      "inputs": [
        {
          "internalType": "string",
          "name": "_gameId",
          "type": "string"
        }
      ],
      "name": "isLuckyGameExpired",
      "outputs": [
        {
          "internalType": "bool",
          "name": "",
          "type": "bool"
        }
      ],
      "stateMutability": "view",
      "type": "function"
    },
    {
      "inputs": [
        {
          "internalType": "uint256",
          "name": "",
          "type": "uint256"
        }
      ],
      "name": "luckyGameIds",
      "outputs": [
        {
          "internalType": "string",
          "name": "",
          "type": "string"
        }
      ],
      "stateMutability": "view",
      "type": "function"
    },
    {
      "inputs": [
        {
          "internalType": "string",
          "name": "",
          "type": "string"
        }
      ],
      "name": "luckyGames",
      "outputs": [
        {
          "internalType": "string",
          "name": "gameId",
          "type": "string"
        },
        {
          "internalType": "address",
          "name": "player",
          "type": "address"
        },
        {
          "internalType": "uint256",
          "name": "entryFee",
          "type": "uint256"
        },
        {
          "internalType": "uint256",
          "name": "guess",
          "type": "uint256"
        },
        {
          "internalType": "uint256",
          "name": "minRange",
          "type": "uint256"
        },
        {
          "internalType": "uint256",
          "name": "maxRange",
          "type": "uint256"
        },
        {
          "internalType": "uint256",
          "name": "randomNumber",
          "type": "uint256"
        },
        {
          "internalType": "bool",
          "name": "resolved",
          "type": "bool"
        },
        {
          "internalType": "bool",
          "name": "winner",
          "type": "bool"
        },
        {
          "internalType": "uint256",
          "name": "createdAt",
          "type": "uint256"
        },
        {
          "internalType": "uint256",
          "name": "expiresAt",
          "type": "uint256"
        }
      ],
      "stateMutability": "view",
      "type": "function"
    },
    {
      "inputs": [],
      "name": "owner",
      "outputs": [
        {
          "internalType": "address",
          "name": "",
          "type": "address"
        }
      ],
      "stateMutability": "view",
      "type": "function"
    },
    {
      "inputs": [],
      "name": "pyth",
      "outputs": [
        {
          "internalType": "contract IPyth",
          "name": "",
          "type": "address"
        }
      ],
      "stateMutability": "view",
      "type": "function"
    },
    {
      "inputs": [
        {
          "internalType": "uint256",
          "name": "battleId",
          "type": "uint256"
        },
        {
          "internalType": "bytes[]",
          "name": "priceUpdateData",
          "type": "bytes[]"
        }
      ],
      "name": "resolveBattle",
      "outputs": [],
      "stateMutability": "payable",
      "type": "function"
    },
    {
      "inputs": [
        {
          "internalType": "string",
          "name": "_gameId",
          "type": "string"
        },
        {
          "internalType": "uint256",
          "name": "_randomNumber",
          "type": "uint256"
        }
      ],
      "name": "resolveLuckyGame",
      "outputs": [],
      "stateMutability": "nonpayable",
      "type": "function"
    },
    {
      "inputs": [],
      "name": "resolver",
      "outputs": [
        {
          "internalType": "address",
          "name": "",
          "type": "address"
        }
      ],
      "stateMutability": "view",
      "type": "function"
    },
    {
      "inputs": [
        {
          "internalType": "address",
          "name": "_resolver",
          "type": "address"
        }
      ],
      "name": "setResolver",
      "outputs": [],
      "stateMutability": "nonpayable",
      "type": "function"
    },
    {
      "stateMutability": "payable",
      "type": "receive"
    }
  ],
  "bytecode": "0x6080604052348015600e575f5ffd5b50604051612474380380612474833981016040819052602b91607e565b505f80546001600160a01b039092166001600160a01b0319928316179055600180548216339081179091556002805490921617905560aa565b80516001600160a01b03811681146079575f5ffd5b919050565b5f5f60408385031215608e575f5ffd5b6095836064565b915060a1602084016064565b90509250929050565b6123bd806100b75f395ff3fe608060405260043610610115575f3560e01c80638da5cb5b11610099578063ed9fed9111610060578063ed9fed9114610388578063efd1c36c1461039b578063f470d5ec146103ae578063f98d06f0146103c2578063fcc80053146103e057005b80638da5cb5b146102d4578063924724f1146102f357806399c6b5fd14610329578063a476bd2614610355578063db2e21bc1461037457005b80634e5d29d2116100dd5780634e5d29d2146101d15780635c93fc3d146101e4578063606d2e961461020557806374c61493146102895780637fbf0927146102a857005b806304f3bcec1461011757806312065fe014610153578063182c7b401461016f578063404f4e621461019e5780634e543b26146101b2575b005b348015610122575f5ffd5b50600254610136906001600160a01b031681565b6040516001600160a01b0390911681526020015b60405180910390f35b34801561015e575f5ffd5b50475b60405190815260200161014a565b34801561017a575f5ffd5b5061018e610189366004611967565b610401565b604051901515815260200161014a565b3480156101a9575f5ffd5b50600554610161565b3480156101bd575f5ffd5b506101156101cc366004611999565b610491565b6101156101df3660046119b9565b61052c565b3480156101ef575f5ffd5b506101f86109c6565b60405161014a9190611a31565b348015610210575f5ffd5b5061022461021f366004611967565b610aa7565b604080516001600160a01b039b8c168152602081019a909a52971515978901979097526060880195909552608087019390935260a0860191909152151560c085015260070b60e08401529092166101008201526101208101919091526101400161014a565b348015610294575f5ffd5b506101156102a3366004611b53565b610b22565b3480156102b3575f5ffd5b506102c76102c2366004611b9a565b610d73565b60405161014a9190611c06565b3480156102df575f5ffd5b50600154610136906001600160a01b031681565b3480156102fe575f5ffd5b5061031261030d366004611d25565b610f5e565b60405161014a9b9a99989796959493929190611db7565b348015610334575f5ffd5b50610348610343366004611967565b611057565b60405161014a9190611e26565b348015610360575f5ffd5b5061018e61036f366004611b9a565b6110fd565b34801561037f575f5ffd5b50610115611179565b610115610396366004611e38565b6111fc565b6101156103a9366004611eaa565b6115ca565b3480156103b9575f5ffd5b50600354610161565b3480156103cd575f5ffd5b505f54610136906001600160a01b031681565b3480156103eb575f5ffd5b506103f461189c565b60405161014a9190611ee3565b6003545f9082106104515760405162461bcd60e51b815260206004820152601560248201527410985d1d1b1948191bd95cc81b9bdd08195e1a5cdd605a1b60448201526064015b60405180910390fd5b5f6003838154811061046557610465611f46565b905f5260205f2090600802019050806005015481600401546104879190611f6e565b4210159392505050565b6001546001600160a01b031633146104db5760405162461bcd60e51b815260206004820152600d60248201526c2737ba103a34329037bbb732b960991b6044820152606401610448565b600280546001600160a01b038381166001600160a01b0319831681179093556040519116919082907f84b83d2b66cac119ccaaca68b476b0dc5371d5f2fd27f697770a910175fd38b6905f90a35050565b6002546001600160a01b031633146105565760405162461bcd60e51b815260040161044890611f81565b600354831061059f5760405162461bcd60e51b815260206004820152601560248201527410985d1d1b1948191bd95cc81b9bdd08195e1a5cdd605a1b6044820152606401610448565b5f600384815481106105b3576105b3611f46565b5f9182526020909120600890910201600681015490915060ff161561060d5760405162461bcd60e51b815260206004820152601060248201526f105b1c9958591e481c995cdbdb1d995960821b6044820152606401610448565b806005015481600401546106219190611f6e565b4210156106655760405162461bcd60e51b815260206004820152601260248201527110985d1d1b19481b9bdd08195e1c1a5c995960721b6044820152606401610448565b5f805460405163d47eed4560e01b81526001600160a01b039091169063d47eed45906106979087908790600401611fe0565b602060405180830381865afa1580156106b2573d5f5f3e3d5ffd5b505050506040513d601f19601f820116820180604052508101906106d6919061207e565b9050803410156107205760405162461bcd60e51b8152602060048201526015602482015274496e73756666696369656e7420507974682066656560581b6044820152606401610448565b5f54604051631df3cbc560e31b81526001600160a01b039091169063ef9e5e289083906107539088908890600401611fe0565b5f604051808303818588803b15801561076a575f5ffd5b505af115801561077c573d5f5f3e3d5ffd5b50505f80546040516331d98b3f60e01b81527fff61491a931112ddf1bd8147cd1b641375f79f5825126d665480874634fd0ace6004820181905295509193506001600160a01b031691506331d98b3f90602401608060405180830381865afa1580156107ea573d5f5f3e3d5ffd5b505050506040513d601f19601f8201168201806040525081019061080e9190612095565b80516006860180546001600160401b039092166101000268ffffffffffffffff001990921691909117905560028501549091505f9060ff16801561085e5750846001015460070b825f015160070b135b1561086b57506001610895565b600285015460ff1615801561088c5750846001015460070b825f015160070b125b15610895575060015b8015610907578454600686018054600160481b6001600160a01b03909316928302600160481b600160e81b031990911617905560038601546108fc906108dc90600261210b565b6040518115909202915f818181858888f19350505050158015610901573d5f5f3e3d5ffd5b5061091d565b600685018054600160481b600160e81b03191690555b60068501805460ff191660011790553484101561096957336108fc6109428634612122565b6040518115909202915f818181858888f19350505050158015610967573d5f5f3e3d5ffd5b505b6006850154604051610100820460070b8152600160481b9091046001600160a01b03169089907f4a80fbe497a7abec7daa2577558ac8560f2157a7a5b9bf639ed2ddfefee8e82f9060200160405180910390a35050505050505050565b60606003805480602002602001604051908101604052809291908181526020015f905b82821015610a9e575f84815260209081902060408051610140810182526008860290920180546001600160a01b03908116845260018083015485870152600283015460ff9081161515948601949094526003830154606086015260048301546080860152600583015460a08601526006830154938416151560c0860152610100808504600790810b60e0880152600160481b9095049092169185019190915291015461012083015290835290920191016109e9565b50505050905090565b60038181548110610ab6575f80fd5b5f918252602090912060089091020180546001820154600283015460038401546004850154600586015460068701546007978801546001600160a01b039788169950959760ff9586169794969395929492821693610100830490910b92600160481b909204909116908a565b6002546001600160a01b03163314610b4c5760405162461bcd60e51b815260040161044890611f81565b5f60048484604051610b5f929190612135565b908152602001604051809103902090505f815f018054610b7e90612144565b905011610b9d5760405162461bcd60e51b81526004016104489061217c565b600781015460ff1615610be55760405162461bcd60e51b815260206004820152601060248201526f105b1c9958591e481c995cdbdb1d995960821b6044820152606401610448565b8060090154421015610c2c5760405162461bcd60e51b815260206004820152601060248201526f11d85b59481b9bdd08195e1c1a5c995960821b6044820152606401610448565b5f81600401548260050154610c419190612122565b610c4c906001611f6e565b90505f610c5982856121a9565b8360040154610c689190611f6e565b905080836006018190555080836003015403610cdf5760078301805461ff00191661010017905560018301546002808501546001600160a01b03909216916108fc91610cb4919061210b565b6040518115909202915f818181858888f19350505050158015610cd9573d5f5f3e3d5ffd5b50610ced565b60078301805461ff00191690555b60078301805460ff191660019081179091558301546040516001600160a01b0390911690610d1e9088908890612135565b604080519182900382206007870154858452610100900460ff1615156020840152917ff7435cbf53084b2bddd44becad6b6d2682799ee6564d1f98cd15fbf51f8c2624910160405180910390a3505050505050565b610dd3604051806101600160405280606081526020015f6001600160a01b031681526020015f81526020015f81526020015f81526020015f81526020015f81526020015f151581526020015f151581526020015f81526020015f81525090565b5f60048484604051610de6929190612135565b9081526040519081900360200190208054610e0090612144565b905011610e1f5760405162461bcd60e51b81526004016104489061217c565b60048383604051610e31929190612135565b9081526020016040518091039020604051806101600160405290815f82018054610e5a90612144565b80601f0160208091040260200160405190810160405280929190818152602001828054610e8690612144565b8015610ed15780601f10610ea857610100808354040283529160200191610ed1565b820191905f5260205f20905b815481529060010190602001808311610eb457829003601f168201915b505050918352505060018201546001600160a01b03166020820152600282015460408201526003820154606082015260048201546080820152600582015460a0820152600682015460c0820152600782015460ff808216151560e0840152610100918290041615159082015260088201546101208201526009909101546101409091015290505b92915050565b8051602081830181018051600482529282019190930120915280548190610f8490612144565b80601f0160208091040260200160405190810160405280929190818152602001828054610fb090612144565b8015610ffb5780601f10610fd257610100808354040283529160200191610ffb565b820191905f5260205f20905b815481529060010190602001808311610fde57829003601f168201915b50505050600183015460028401546003850154600486015460058701546006880154600789015460088a01546009909a015498996001600160a01b0390971698959750939592949193909260ff8083169361010090930416918b565b60058181548110611066575f80fd5b905f5260205f20015f91509050805461107e90612144565b80601f01602080910402602001604051908101604052809291908181526020018280546110aa90612144565b80156110f55780601f106110cc576101008083540402835291602001916110f5565b820191905f5260205f20905b8154815290600101906020018083116110d857829003601f168201915b505050505081565b5f5f60048484604051611111929190612135565b908152604051908190036020019020805461112b90612144565b90501161114a5760405162461bcd60e51b81526004016104489061217c565b6004838360405161115c929190612135565b908152602001604051809103902060090154421015905092915050565b6001546001600160a01b031633146111c35760405162461bcd60e51b815260206004820152600d60248201526c2737ba103a34329037bbb732b960991b6044820152606401610448565b6001546040516001600160a01b03909116904780156108fc02915f818181858888f193505050501580156111f9573d5f5f3e3d5ffd5b50565b6002546001600160a01b031633146112265760405162461bcd60e51b815260040161044890611f81565b856112655760405162461bcd60e51b815260206004820152600f60248201526e125b9d985b1a590819d85b59481251608a1b6044820152606401610448565b6001600160a01b0385166112b45760405162461bcd60e51b8152602060048201526016602482015275496e76616c696420706c61796572206164647265737360501b6044820152606401610448565b8284101580156112c45750818411155b6113055760405162461bcd60e51b81526020600482015260126024820152714775657373206f7574206f662072616e676560701b6044820152606401610448565b4281116113495760405162461bcd60e51b815260206004820152601260248201527124b73b30b634b21032bc3834b930ba34b7b760711b6044820152606401610448565b6004878760405161135b929190612135565b908152604051908190036020019020805461137590612144565b1590506113bd5760405162461bcd60e51b815260206004820152601660248201527547616d6520494420616c72656164792065786973747360501b6044820152606401610448565b60405180610160016040528088888080601f0160208091040260200160405190810160405280939291908181526020018383808284375f9201829052509385525050506001600160a01b038816602083015234604080840191909152606083018890526080830187905260a0830186905260c0830182905260e083018290526101008301919091524261012083015261014090910183905251600490611466908a908a90612135565b908152604051908190036020019020815181906114839082612214565b506020820151600180830180546001600160a01b039093166001600160a01b03199093169290921790915560408301516002830155606083015160038301556080830151600483015560a083015160058084019190915560c0840151600684015560e08401516007840180546101008088015115150261ff00199315159390931661ffff1990911617919091179055610120840151600884015561014090930151600990920191909155815490810182555f919091527f036b6384b5eca791c62761152d0c79bb0604c104a5fb6f4eb0703f3154bb3db0016115668789836122ce565b50846001600160a01b03168787604051611581929190612135565b6040805191829003822034835260208301889052917f48782d088f9265a1f9122aa522af92c4c6896e58ee1b3d5f10fcb1226bce1ad5910160405180910390a350505050505050565b5f341161160a5760405162461bcd60e51b815260206004820152600e60248201526d14dd185ad9481c995c5d5a5c995960921b6044820152606401610448565b603c81101561165b5760405162461bcd60e51b815260206004820152601960248201527f4d696e696d756d2031206d696e757465206475726174696f6e000000000000006044820152606401610448565b610e108111156116ad5760405162461bcd60e51b815260206004820152601760248201527f4d6178696d756d203120686f7572206475726174696f6e0000000000000000006044820152606401610448565b5f60038054905090506003604051806101400160405280336001600160a01b0316815260200186815260200185151581526020013481526020014281526020018481526020015f151581526020015f60070b81526020015f6001600160a01b0316815260200142815250908060018154018082558091505060019003905f5260205f2090600802015f909190919091505f820151815f015f6101000a8154816001600160a01b0302191690836001600160a01b03160217905550602082015181600101556040820151816002015f6101000a81548160ff021916908315150217905550606082015181600301556080820151816004015560a0820151816005015560c0820151816006015f6101000a81548160ff02191690831515021790555060e08201518160060160016101000a8154816001600160401b03021916908360070b6001600160401b031602179055506101008201518160060160096101000a8154816001600160a01b0302191690836001600160a01b0316021790555061012082015181600701555050336001600160a01b0316817f5c0366fee7e2117333d10920be155c3bed6005ab500e88d271bee87674d0d0ca8686348760405161188e949392919093845291151560208401526040830152606082015260800190565b60405180910390a350505050565b60606005805480602002602001604051908101604052809291908181526020015f905b82821015610a9e578382905f5260205f200180546118dc90612144565b80601f016020809104026020016040519081016040528092919081815260200182805461190890612144565b80156119535780601f1061192a57610100808354040283529160200191611953565b820191905f5260205f20905b81548152906001019060200180831161193657829003601f168201915b5050505050815260200190600101906118bf565b5f60208284031215611977575f5ffd5b5035919050565b80356001600160a01b0381168114611994575f5ffd5b919050565b5f602082840312156119a9575f5ffd5b6119b28261197e565b9392505050565b5f5f5f604084860312156119cb575f5ffd5b8335925060208401356001600160401b038111156119e7575f5ffd5b8401601f810186136119f7575f5ffd5b80356001600160401b03811115611a0c575f5ffd5b8660208260051b8401011115611a20575f5ffd5b939660209190910195509293505050565b602080825282518282018190525f918401906040840190835b81811015611b0457835180516001600160a01b03168452602081015160208501526040810151611a7e604086018215159052565b50606081015160608501526080810151608085015260a081015160a085015260c0810151611ab060c086018215159052565b5060e0810151611ac560e086018260070b9052565b50610100810151611ae26101008601826001600160a01b03169052565b5061012090810151908401526020939093019261014090920191600101611a4a565b509095945050505050565b5f5f83601f840112611b1f575f5ffd5b5081356001600160401b03811115611b35575f5ffd5b602083019150836020828501011115611b4c575f5ffd5b9250929050565b5f5f5f60408486031215611b65575f5ffd5b83356001600160401b03811115611b7a575f5ffd5b611b8686828701611b0f565b909790965060209590950135949350505050565b5f5f60208385031215611bab575f5ffd5b82356001600160401b03811115611bc0575f5ffd5b611bcc85828601611b0f565b90969095509350505050565b5f81518084528060208401602086015e5f602082860101526020601f19601f83011685010191505092915050565b602081525f82516101606020840152611c23610180840182611bd8565b90506020840151611c3f60408501826001600160a01b03169052565b506040840151606084015260608401516080840152608084015160a084015260a084015160c084015260c084015160e084015260e0840151611c8661010085018215159052565b50610100840151801515610120850152506101208401516101408401526101408401516101608401528091505092915050565b634e487b7160e01b5f52604160045260245ffd5b604051608081016001600160401b0381118282101715611cef57611cef611cb9565b60405290565b604051601f8201601f191681016001600160401b0381118282101715611d1d57611d1d611cb9565b604052919050565b5f60208284031215611d35575f5ffd5b81356001600160401b03811115611d4a575f5ffd5b8201601f81018413611d5a575f5ffd5b80356001600160401b03811115611d7357611d73611cb9565b611d86601f8201601f1916602001611cf5565b818152856020838501011115611d9a575f5ffd5b816020840160208301375f91810160200191909152949350505050565b61016081525f611dcb61016083018e611bd8565b6001600160a01b039c909c1660208301525060408101999099526060890197909752608088019590955260a087019390935260c0860191909152151560e0850152151561010084015261012083015261014090910152919050565b602081525f6119b26020830184611bd8565b5f5f5f5f5f5f5f60c0888a031215611e4e575f5ffd5b87356001600160401b03811115611e63575f5ffd5b611e6f8a828b01611b0f565b9098509650611e8290506020890161197e565b96999598509596604081013596506060810135956080820135955060a0909101359350915050565b5f5f5f60608486031215611ebc575f5ffd5b8335925060208401358015158114611ed2575f5ffd5b929592945050506040919091013590565b5f602082016020835280845180835260408501915060408160051b8601019250602086015f5b82811015611f3a57603f19878603018452611f25858351611bd8565b94506020938401939190910190600101611f09565b50929695505050505050565b634e487b7160e01b5f52603260045260245ffd5b634e487b7160e01b5f52601160045260245ffd5b80820180821115610f5857610f58611f5a565b60208082526017908201527f4e6f7420617574686f72697a6564207265736f6c766572000000000000000000604082015260600190565b81835281816020850137505f828201602090810191909152601f909101601f19169091010190565b602080825281018290525f6040600584901b830181019083018583601e1936839003015b8782101561207157868503603f190184528235818112612022575f5ffd5b89016020810190356001600160401b0381111561203d575f5ffd5b80360382131561204b575f5ffd5b612056878284611fb8565b96505050602083019250602084019350600182019150612004565b5092979650505050505050565b5f6020828403121561208e575f5ffd5b5051919050565b5f60808284031280156120a6575f5ffd5b506120af611ccd565b82518060070b81146120bf575f5ffd5b815260208301516001600160401b03811681146120da575f5ffd5b60208201526040830151600381900b81146120f3575f5ffd5b60408201526060928301519281019290925250919050565b8082028115828204841417610f5857610f58611f5a565b81810381811115610f5857610f58611f5a565b818382375f9101908152919050565b600181811c9082168061215857607f821691505b60208210810361217657634e487b7160e01b5f52602260045260245ffd5b50919050565b60208082526013908201527211d85b5948191bd95cc81b9bdd08195e1a5cdd606a1b604082015260600190565b5f826121c357634e487b7160e01b5f52601260045260245ffd5b500690565b601f82111561220f57805f5260205f20601f840160051c810160208510156121ed5750805b601f840160051c820191505b8181101561220c575f81556001016121f9565b50505b505050565b81516001600160401b0381111561222d5761222d611cb9565b6122418161223b8454612144565b846121c8565b6020601f821160018114612273575f831561225c5750848201515b5f19600385901b1c1916600184901b17845561220c565b5f84815260208120601f198516915b828110156122a25787850151825560209485019460019092019101612282565b50848210156122bf57868401515f19600387901b60f8161c191681555b50505050600190811b01905550565b6001600160401b038311156122e5576122e5611cb9565b6122f9836122f38354612144565b836121c8565b5f601f84116001811461232a575f85156123135750838201355b5f19600387901b1c1916600186901b17835561220c565b5f83815260208120601f198716915b828110156123595786850135825560209485019460019092019101612339565b5086821015612375575f1960f88860031b161c19848701351681555b505060018560011b018355505050505056fea26469706673582212200808f81b8c256d0aae893297b68624046dbb8f49ff56df814726c54d196ab5d964736f6c634300081c0033",
  "linkReferences": {},
  "deployedLinkReferences": {},
  "immutableReferences": {},
  "inputSourceName": "project/contracts/ArenaVaultV2.sol",
  "buildInfoId": "solc-0_8_28-2ba7712624c210022933b21a9a163316e7b227ce"
}