{"project/contracts/ArenaVault.sol":{"ArenaVault":{"abi":[{"inputs":[{"internalType":"address","name":"_pythAddress","type":"address"},{"internalType":"address","name":"_entropyAddress","type":"address"}],"stateMutability":"nonpayable","type":"constructor"},{"anonymous":false,"inputs":[{"indexed":true,"internalType":"uint256","name":"gameId","type":"uint256"},{"indexed":true,"internalType":"address","name":"creator","type":"address"},{"indexed":false,"internalType":"uint256","name":"entryFee","type":"uint256"}],"name":"GameCreated","type":"event"},{"anonymous":false,"inputs":[{"indexed":true,"internalType":"uint256","name":"gameId","type":"uint256"},{"indexed":true,"internalType":"address","name":"winner","type":"address"},{"indexed":false,"internalType":"uint256","name":"winningNumber","type":"uint256"}],"name":"GameSettled","type":"event"},{"anonymous":false,"inputs":[{"indexed":true,"internalType":"uint256","name":"gameId","type":"uint256"},{"indexed":true,"internalType":"address","name":"player","type":"address"},{"indexed":false,"internalType":"uint256","name":"guess","type":"uint256"}],"name":"PlayerJoined","type":"event"},{"anonymous":false,"inputs":[{"indexed":true,"internalType":"uint256","name":"gameId","type":"uint256"},{"indexed":false,"internalType":"uint64","name":"sequenceNumber","type":"uint64"}],"name":"RandomNumberRequested","type":"event"},{"inputs":[{"internalType":"uint64","name":"sequence","type":"uint64"},{"internalType":"address","name":"provider","type":"address"},{"internalType":"bytes32","name":"randomNumber","type":"bytes32"}],"name":"_entropyCallback","outputs":[],"stateMutability":"nonpayable","type":"function"},{"inputs":[{"internalType":"uint256","name":"","type":"uint256"}],"name":"battles","outputs":[{"internalType":"address","name":"player1","type":"address"},{"internalType":"address","name":"player2","type":"address"},{"internalType":"uint256","name":"stake","type":"uint256"},{"internalType":"bool","name":"resolved","type":"bool"},{"internalType":"int64","name":"prediction1","type":"int64"},{"internalType":"int64","name":"prediction2","type":"int64"},{"internalType":"int64","name":"finalPrice","type":"int64"},{"internalType":"address","name":"winner","type":"address"}],"stateMutability":"view","type":"function"},{"inputs":[{"internalType":"int64","name":"_prediction","type":"int64"}],"name":"createBattle","outputs":[],"stateMutability":"payable","type":"function"},{"inputs":[{"internalType":"uint256","name":"_entryFee","type":"uint256"},{"internalType":"uint256","name":"_minGuess","type":"uint256"},{"internalType":"uint256","name":"_maxGuess","type":"uint256"},{"internalType":"uint256","name":"_duration","type":"uint256"}],"name":"createLuckyGame","outputs":[],"stateMutability":"payable","type":"function"},{"inputs":[],"name":"entropy","outputs":[{"internalType":"contract IEntropyV2","name":"","type":"address"}],"stateMutability":"view","type":"function"},{"inputs":[],"name":"getAllBattles","outputs":[{"components":[{"internalType":"address","name":"player1","type":"address"},{"internalType":"address","name":"player2","type":"address"},{"internalType":"uint256","name":"stake","type":"uint256"},{"internalType":"bool","name":"resolved","type":"bool"},{"internalType":"int64","name":"prediction1","type":"int64"},{"internalType":"int64","name":"prediction2","type":"int64"},{"internalType":"int64","name":"finalPrice","type":"int64"},{"internalType":"address","name":"winner","type":"address"}],"internalType":"struct ArenaVault.Battle[]","name":"","type":"tuple[]"}],"stateMutability":"view","type":"function"},{"inputs":[{"internalType":"uint256","name":"_gameId","type":"uint256"}],"name":"getGamePlayers","outputs":[{"internalType":"address[]","name":"","type":"address[]"}],"stateMutability":"view","type":"function"},{"inputs":[{"internalType":"uint256","name":"_gameId","type":"uint256"}],"name":"getLuckyGameBasic","outputs":[{"internalType":"uint256","name":"gameId","type":"uint256"},{"internalType":"address","name":"creator","type":"address"},{"internalType":"uint256","name":"entryFee","type":"uint256"},{"internalType":"uint256","name":"prizePool","type":"uint256"},{"internalType":"uint256","name":"playerCount","type":"uint256"}],"stateMutability":"view","type":"function"},{"inputs":[],"name":"getLuckyGameCount","outputs":[{"internalType":"uint256","name":"","type":"uint256"}],"stateMutability":"view","type":"function"},{"inputs":[{"internalType":"uint256","name":"_gameId","type":"uint256"}],"name":"getLuckyGameDetails","outputs":[{"internalType":"uint256","name":"minGuess","type":"uint256"},{"internalType":"uint256","name":"maxGuess","type":"uint256"},{"internalType":"uint256","name":"winningNumber","type":"uint256"},{"internalType":"address","name":"winner","type":"address"},{"internalType":"bool","name":"isActive","type":"bool"},{"internalType":"bool","name":"isSettled","type":"bool"}],"stateMutability":"view","type":"function"},{"inputs":[{"internalType":"uint256","name":"_gameId","type":"uint256"}],"name":"getLuckyGameTiming","outputs":[{"internalType":"uint256","name":"startTime","type":"uint256"},{"internalType":"uint256","name":"endTime","type":"uint256"}],"stateMutability":"view","type":"function"},{"inputs":[{"internalType":"uint256","name":"_gameId","type":"uint256"},{"internalType":"address","name":"_player","type":"address"}],"name":"getPlayerGuess","outputs":[{"internalType":"uint256","name":"","type":"uint256"}],"stateMutability":"view","type":"function"},{"inputs":[{"internalType":"uint256","name":"battleId","type":"uint256"},{"internalType":"int64","name":"_prediction","type":"int64"}],"name":"joinBattle","outputs":[],"stateMutability":"payable","type":"function"},{"inputs":[{"internalType":"uint256","name":"_gameId","type":"uint256"},{"internalType":"uint256","name":"_guess","type":"uint256"}],"name":"joinLuckyGame","outputs":[],"stateMutability":"payable","type":"function"},{"inputs":[{"internalType":"uint256","name":"","type":"uint256"}],"name":"luckyGames","outputs":[{"internalType":"uint256","name":"gameId","type":"uint256"},{"internalType":"address","name":"creator","type":"address"},{"internalType":"uint256","name":"entryFee","type":"uint256"},{"internalType":"uint256","name":"prizePool","type":"uint256"},{"internalType":"uint256","name":"minGuess","type":"uint256"},{"internalType":"uint256","name":"maxGuess","type":"uint256"},{"internalType":"uint256","name":"winningNumber","type":"uint256"},{"internalType":"address","name":"winner","type":"address"},{"internalType":"bool","name":"isActive","type":"bool"},{"internalType":"bool","name":"isSettled","type":"bool"},{"internalType":"uint256","name":"startTime","type":"uint256"},{"internalType":"uint256","name":"endTime","type":"uint256"},{"internalType":"uint64","name":"sequenceNumber","type":"uint64"}],"stateMutability":"view","type":"function"},{"inputs":[],"name":"pyth","outputs":[{"internalType":"contract IPyth","name":"","type":"address"}],"stateMutability":"view","type":"function"},{"inputs":[{"internalType":"uint256","name":"_gameId","type":"uint256"}],"name":"requestRandomNumber","outputs":[],"stateMutability":"payable","type":"function"},{"inputs":[{"internalType":"uint256","name":"battleId","type":"uint256"},{"internalType":"bytes[]","name":"priceUpdateData","type":"bytes[]"}],"name":"resolveBattle","outputs":[],"stateMutability":"payable","type":"function"},{"inputs":[{"internalType":"uint64","name":"","type":"uint64"}],"name":"sequenceToGameId","outputs":[{"internalType":"uint256","name":"","type":"uint256"}],"stateMutability":"view","type":"function"}],"evm":{"bytecode":{"linkReferences":{},"object":"608034608557601f611b0138819003918201601f19168301916001600160401b038311848410176089578084926040948552833981010312608557604b6020604583609d565b9201609d565b5f80546001600160a01b039384166001600160a01b03199182161790915560018054929093169116179055604051611a5090816100b18239f35b5f80fd5b634e487b7160e01b5f52604160045260245ffd5b51906001600160a01b038216820360855756fe60806040526004361015610011575f80fd5b5f5f3560e01c806315a40f49146114f857806317800be71461148057806322fdd53414611239578063404f4e621461121c57806347ce07cc146111f45780634e5d29d214610ce75780634e85879514610ca957806352a5f1f814610b755780635ad18cf314610a9b5780635c93fc3d146108e35780635ef3bc0b146108ab578063606d2e961461080b5780637dd3dffc146106275780639455ba57146105c3578063b1eb96c914610436578063d6997b4b14610268578063f25b923814610168578063f4dcdc8e146101145763f98d06f0146100eb575f80fd5b34610111578060031936011261011157546040516001600160a01b039091168152602090f35b80fd5b503461011157604036600319011261011157600c6004356101496101366115cf565b916101446003548210611631565b6115e5565b509060018060a01b03165f5201602052602060405f2054604051908152f35b506040366003190112610111576024358060070b81036102645761018d600435611615565b506001810180549192916001600160a01b031661023057600283015434036101fa5780546001600160a01b031916331790556003909101805470ffffffffffffffff000000000000000000191667ffffffffffffffff60481b60489390931b929092169190911790555b80f35b60405162461bcd60e51b815260206004820152600e60248201526d0a6e8c2d6ca40dad2e6dac2e8c6d60931b6044820152606490fd5b60405162461bcd60e51b815260206004820152600c60248201526b105b1c9958591e48199d5b1b60a21b6044820152606490fd5b5080fd5b506020366003190112610111576004358060070b8091036102645734156103fc576040519061029682611673565b33825260208201908382526040830134815260608401918583526080850190815260a085019086825260c086019287845260e0870195888752600254600160401b8110156103e8578060016102ee9201600255611615565b9890986103d4575188546001600160a01b039182166001600160a01b0319918216178a55915160018a01805491909216921691909117905551600287015592516003860180549451925160481b67ffffffffffffffff60481b1660089390931b68ffffffffffffffff001691151560ff1670ffffffffffffffffffffffffffffffffff199095169490941717178255600492916103b09151815460889190911b67ffffffffffffffff60881b1667ffffffffffffffff60881b19909116179055565b51910180546001600160a01b0319166001600160a01b039290921691909117905580f35b634e487b7160e01b8a5260048a905260248afd5b634e487b7160e01b8a52604160045260248afd5b60405162461bcd60e51b81526020600482015260126024820152714e6565642045544820746f20626174746c6560701b6044820152606490fd5b506020366003190112610111576004356104536003548210611631565b61045c816115e5565b5061047060ff600783015460a01c166117f1565b60098101544210610585576001600160401b03600a8201541661054057600b01548015610506576104d89060405160208101914283524460408301523360601b60608301528460748301526094820152609481526104cf60b48261168f565b51902082611866565b7f04b211700ecf92b8ce477de62320459e015235561cadb1ff1d4c0643dcbc00e1602060405160018152a280f35b60405162461bcd60e51b81526020600482015260126024820152714e6f20706c617965727320696e2067616d6560701b6044820152606490fd5b60405162461bcd60e51b815260206004820152601f60248201527f52616e646f6d206e756d62657220616c726561647920726571756573746564006044820152606490fd5b60405162461bcd60e51b815260206004820152601660248201527511d85b59481a185cc81b9bdd08195b991959081e595d60521b6044820152606490fd5b50346101115760203660031901126101115760a06105ea6004356101446003548210611631565b50805490600180841b03600182015416906002810154600b6003830154920154926040519485526020850152604084015260608301526080820152f35b50604036600319011261011157600435602435906106486003548210611631565b610651816115e5565b5061066560ff600783015460a01c166117f1565b60098101544210156107d5576002810154340361079a5760048101548310158061078c575b1561075257600c81019060018060a01b0333165f528160205260405f205461070d576003916106bc33600b84016116e6565b60018060a01b0333165f526020528360405f2055016106dc3482546116b0565b90556040519182527f03dfbe1fcb4e2d61f3b4a0c93d8f814c92250618b3387f396cc9fc9fafe2c20360203393a380f35b60405162461bcd60e51b815260206004820152601860248201527f416c7265616479206a6f696e656420746869732067616d6500000000000000006044820152606490fd5b60405162461bcd60e51b81526020600482015260126024820152714775657373206f7574206f662072616e676560701b6044820152606490fd5b50600581015483111561068a565b60405162461bcd60e51b8152602060048201526013602482015272496e636f727265637420656e7472792066656560681b6044820152606490fd5b60405162461bcd60e51b815260206004820152600e60248201526d11d85b59481a185cc8195b99195960921b6044820152606490fd5b503461011157602036600319011261011157600435906002548210156101115761010061083783611615565b508054600182015460028301546003840154600490940154604080516001600160a01b039586168152938516602085015283019190915260ff841615156060830152600884901c600790810b6080840152604885901c810b60a084015260889490941c90930b60c0820152911660e0820152f35b50346101115760203660031901126101115760406020916001600160401b036108d26115b9565b168152600483522054604051908152f35b50346101115780600319360112610111576002546001600160401b038111610a875760405161091860208360051b018261168f565b818152600283526020810191837f405787fa12a823e0f2b7631cc41b3ba8828b3321ca811111fa75cd3aa3bb5ace845b8383106109fe57868587604051928392602084019060208552518091526040840192915b81811061097a575050500390f35b9193509160206101006001928651848060a01b038151168252848060a01b0384820151168483015260408101516040830152606081015115156060830152608081015160070b608083015260a081015160070b60a083015260c081015160070b60c083015260e0858060a01b039101511660e082015201940191019184939261096c565b60056020600192604051610a1181611673565b848060a01b038654168152848060a01b0385870154168382015260028601546040820152600386015460ff8116151560608301528060081c60070b60808301528060481c60070b60a083015260881c60070b60c0820152848060a01b0360048701541660e0820152815201920192019190610948565b634e487b7160e01b82526041600452602482fd5b50346101115760203660031901126101115760043590600354821015610111576101a0610ac7836115e5565b5080549060018060a01b0360018201541690600281015460ff6003830154600484015460058501546006860154916007870154936008880154966001600160401b03600a60098b01549a015416996040519b8c5260208c015260408b015260608a0152608089015260a088015260c087015260018060a01b03811660e0870152818160a01c16151561010087015260a81c161515610120850152610140840152610160830152610180820152f35b503461011157606036600319011261011157610b8f6115b9565b610b976115cf565b506001546001600160a01b03168015610c64573303610c13576001600160401b0316815260046020526040812054600354811015610bdc576101f79060443590611866565b60405162461bcd60e51b815260206004820152600f60248201526e125b9d985b1a590819d85b59481251608a1b6044820152606490fd5b60405162461bcd60e51b815260206004820152602360248201527f4f6e6c7920456e74726f70792063616e2063616c6c20746869732066756e637460448201526234b7b760e91b6064820152608490fd5b60405162461bcd60e51b815260206004820152601760248201527f456e74726f70792061646472657373206e6f74207365740000000000000000006044820152606490fd5b5034610111576020366003190112610111576040610cd06004356101446003548210611631565b506009600882015491015482519182526020820152f35b5060403660031901126110fe576024356001600160401b0381116110fe57366023820112156110fe5780600401356001600160401b0381116110fe576024820191602436918360051b0101116110fe57610d42600435611615565b50600381019260ff8454166111bc576001820180549093906001600160a01b031615611185575f5460405163d47eed4560e01b815291906001600160a01b031660208380610d94858860048401611727565b0381845afa9283156110f3575f93611151575b5082341061110257803b156110fe57604051631df3cbc560e31b8152935f93859384928391610dd99160048401611727565b03925af180156110f3576110dd575b5083546040516396834ad360e01b81527fff61491a931112ddf1bd8147cd1b641375f79f5825126d665480874634fd0ace60048201529190608090839060249082906001600160a01b03165afa9182156110d257859261101f575b508151845467ffffffffffffffff60881b191667ffffffffffffffff60881b608883901b161785556001600160401b0390610eae90610e969060070b83610e9b610e968a54938460081c60070b906117ca565b611832565b16955160070b9060481c60070b906117ca565b169160028201908154938460011b948086046002149015171561100b5791818389979694889694105f14610f3e5750508154600490920180546001600160a01b0319166001600160a01b03939093169283179055509192508291829190828215610f35575bf115610f28575b805460ff1916600117905580f35b50604051903d90823e3d90fd5b506108fc610f13565b1015610f9357508354600490910180546001600160a01b0319166001600160a01b0392831617905592549192839283929116828215610f8a575bf1610f1a5750604051903d90823e3d90fd5b506108fc610f78565b6004820180546001600160a01b03191690559054815491939250829182918291906001600160a01b0316828215611002575bf115610ff757905490548291829182916001600160a01b0316828215610f8a57f1610f1a5750604051903d90823e3d90fd5b6040513d84823e3d90fd5b506108fc610fc5565b634e487b7160e01b88526011600452602488fd5b9091506080813d6080116110ca575b8161103b6080938361168f565b810103126110c65760405190608082018281106001600160401b038211176110b25760405280518060070b81036110ae57825260208101516001600160401b03811681036110ae5760208301526040810151908160030b82036110ae57606091604084015201516060820152905f610e43565b8680fd5b634e487b7160e01b87526041600452602487fd5b8480fd5b3d915061102e565b6040513d87823e3d90fd5b6110ea9194505f9061168f565b5f926024610de8565b6040513d5f823e3d90fd5b5f80fd5b60405162461bcd60e51b815260206004820152602160248201527f496e73756666696369656e742066656520666f722070726963652075706461746044820152606560f81b6064820152608490fd5b9092506020813d60201161117d575b8161116d6020938361168f565b810103126110fe5751915f610da7565b3d9150611160565b60405162461bcd60e51b815260206004820152600f60248201526e10985d1d1b19481b9bdd08199d5b1b608a1b6044820152606490fd5b60405162461bcd60e51b815260206004820152601060248201526f105b1c9958591e481c995cdbdb1d995960821b6044820152606490fd5b346110fe575f3660031901126110fe576001546040516001600160a01b039091168152602090f35b346110fe575f3660031901126110fe576020600354604051908152f35b60803660031901126110fe576064356024356004356044353482900361143157808310156113f657603c84106113b25760035492600160401b84101561139e57600c9161131d9160018601600355611290866115e5565b505061130061129e876115e5565b508781556001810180546001600160a01b03191633179055600281018790556003810187905560048101839055600581018490555f60068201556007810180546001600160b01b031916600160a01b17905542600882018190559098906116b0565b6009880155600a8701805467ffffffffffffffff191690556116b0565b60011c9361132e33600b83016116e6565b60018060a01b0333165f52016020528260405f2055604051908152817f7dfb67e9ff596fca4da65c7eedb128cd1aac553af54b3c0cb733625a2480d8bd60203393a36040519182527f03dfbe1fcb4e2d61f3b4a0c93d8f814c92250618b3387f396cc9fc9fafe2c20360203393a3005b634e487b7160e01b5f52604160045260245ffd5b606460405162461bcd60e51b815260206004820152602060248201527f47616d65206d757374206c617374206174206c656173742031206d696e7574656044820152fd5b60405162461bcd60e51b8152602060048201526013602482015272496e76616c69642067756573732072616e676560681b6044820152606490fd5b60405162461bcd60e51b815260206004820152602160248201527f4d7573742070617920656e7472792066656520746f206372656174652067616d6044820152606560f81b6064820152608490fd5b346110fe5760203660031901126110fe5760c06114a66004356101446003548210611631565b5060ff60048201549160058101549060076006820154910154916040519485526020850152604084015260018060a01b0381166060840152818160a01c161515608084015260a81c16151560a0820152f35b346110fe5760203660031901126110fe57600b61151e6004356101446003548210611631565b5001604051806020835491828152019081935f5260205f20905f5b81811061159a575050508161154f91038261168f565b604051918291602083019060208452518091526040830191905f5b818110611578575050500390f35b82516001600160a01b031684528594506020938401939092019160010161156a565b82546001600160a01b0316845260209093019260019283019201611539565b600435906001600160401b03821682036110fe57565b602435906001600160a01b03821682036110fe57565b6003548110156116015760035f52600d60205f20910201905f90565b634e487b7160e01b5f52603260045260245ffd5b6002548110156116015760025f52600560205f20910201905f90565b1561163857565b60405162461bcd60e51b815260206004820152601360248201527211d85b5948191bd95cc81b9bdd08195e1a5cdd606a1b6044820152606490fd5b61010081019081106001600160401b0382111761139e57604052565b90601f801991011681019081106001600160401b0382111761139e57604052565b919082018092116116bd57565b634e487b7160e01b5f52601160045260245ffd5b8054821015611601575f5260205f2001905f90565b8054600160401b81101561139e57611703916001820181556116d1565b81546001600160a01b0393841660039290921b91821b9390911b1916919091179055565b9180602084016020855252604083019060408160051b85010193835f91601e1982360301905b84841061175e575050505050505090565b90919293949596603f198282030187528735838112156110fe57840190602082359201916001600160401b0381116110fe5780360383136110fe576020828280600196849695859652848401375f828201840152601f01601f191601019901970195940192919061174d565b600791820b910b0390677fffffffffffffff198212677fffffffffffffff8313176116bd57565b156117f857565b60405162461bcd60e51b815260206004820152601260248201527147616d65206973206e6f742061637469766560701b6044820152606490fd5b600781900b5f8112611842575090565b9050677fffffffffffffff1981146116bd575f0390565b919082039182116116bd57565b61186f816115e5565b5091600783019060ff825460a81c166119de57600584015461189660048601548092611859565b600181018091116116bd5780156119ca576118b29206906116b0565b60068401918183555f915f195f90600b880192835493600c8a01935b85811061196057505084546001600160b01b0319166001600160a01b0396909616958617600160a81b1790945550929592508591506119399050575b5060207f05da8c4db77b35635ce26b87fbcc7380ff80950dc26b8f0a41e2309d4adb72a19154604051908152a3565b5f808060038194015487828215611957575bf1156110f3575f61190a565b506108fc61194b565b61196a81836116d1565b905460039190911b1c6001600160a01b03165f8181526020879052604090205484808211156119bb5761199c91611859565b8581106119ae575b50506001016118ce565b909850935060015f6119a4565b906119c591611859565b61199c565b634e487b7160e01b5f52601260045260245ffd5b60405162461bcd60e51b815260206004820152601460248201527311d85b5948185b1c9958591e481cd95d1d1b195960621b6044820152606490fdfea264697066735822122086d3f8f2f23249941ddc6a0d3f5f9498691f72dfbc43a30b2b2ef82e1456b34864736f6c634300081c0033","opcodes":"PUSH1 0x80 CALLVALUE PUSH1 0x85 JUMPI PUSH1 0x1F PUSH2 0x1B01 CODESIZE DUP2 SWAP1 SUB SWAP2 DUP3 ADD PUSH1 0x1F NOT AND DUP4 ADD SWAP2 PUSH1 0x1 PUSH1 0x1 PUSH1 0x40 SHL SUB DUP4 GT DUP5 DUP5 LT OR PUSH1 0x89 JUMPI DUP1 DUP5 SWAP3 PUSH1 0x40 SWAP5 DUP6 MSTORE DUP4 CODECOPY DUP2 ADD SUB SLT PUSH1 0x85 JUMPI PUSH1 0x4B PUSH1 0x20 PUSH1 0x45 DUP4 PUSH1 0x9D JUMP JUMPDEST SWAP3 ADD PUSH1 0x9D JUMP JUMPDEST PUSH0 DUP1 SLOAD PUSH1 0x1 PUSH1 0x1 PUSH1 0xA0 SHL SUB SWAP4 DUP5 AND PUSH1 0x1 PUSH1 0x1 PUSH1 0xA0 SHL SUB NOT SWAP2 DUP3 AND OR SWAP1 SWAP2 SSTORE PUSH1 0x1 DUP1 SLOAD SWAP3 SWAP1 SWAP4 AND SWAP2 AND OR SWAP1 SSTORE PUSH1 0x40 MLOAD PUSH2 0x1A50 SWAP1 DUP2 PUSH2 0xB1 DUP3 CODECOPY RETURN JUMPDEST PUSH0 DUP1 REVERT JUMPDEST PUSH4 0x4E487B71 PUSH1 0xE0 SHL PUSH0 MSTORE PUSH1 0x41 PUSH1 0x4 MSTORE PUSH1 0x24 PUSH0 REVERT JUMPDEST MLOAD SWAP1 PUSH1 0x1 PUSH1 0x1 PUSH1 0xA0 SHL SUB DUP3 AND DUP3 SUB PUSH1 0x85 JUMPI JUMP INVALID PUSH1 0x80 PUSH1 0x40 MSTORE PUSH1 0x4 CALLDATASIZE LT ISZERO PUSH2 0x11 JUMPI PUSH0 DUP1 REVERT JUMPDEST PUSH0 PUSH0 CALLDATALOAD PUSH1 0xE0 SHR DUP1 PUSH4 0x15A40F49 EQ PUSH2 0x14F8 JUMPI DUP1 PUSH4 0x17800BE7 EQ PUSH2 0x1480 JUMPI DUP1 PUSH4 0x22FDD534 EQ PUSH2 0x1239 JUMPI DUP1 PUSH4 0x404F4E62 EQ PUSH2 0x121C JUMPI DUP1 PUSH4 0x47CE07CC EQ PUSH2 0x11F4 JUMPI DUP1 PUSH4 0x4E5D29D2 EQ PUSH2 0xCE7 JUMPI DUP1 PUSH4 0x4E858795 EQ PUSH2 0xCA9 JUMPI DUP1 PUSH4 0x52A5F1F8 EQ PUSH2 0xB75 JUMPI DUP1 PUSH4 0x5AD18CF3 EQ PUSH2 0xA9B JUMPI DUP1 PUSH4 0x5C93FC3D EQ PUSH2 0x8E3 JUMPI DUP1 PUSH4 0x5EF3BC0B EQ PUSH2 0x8AB JUMPI DUP1 PUSH4 0x606D2E96 EQ PUSH2 0x80B JUMPI DUP1 PUSH4 0x7DD3DFFC EQ PUSH2 0x627 JUMPI DUP1 PUSH4 0x9455BA57 EQ PUSH2 0x5C3 JUMPI DUP1 PUSH4 0xB1EB96C9 EQ PUSH2 0x436 JUMPI DUP1 PUSH4 0xD6997B4B EQ PUSH2 0x268 JUMPI DUP1 PUSH4 0xF25B9238 EQ PUSH2 0x168 JUMPI DUP1 PUSH4 0xF4DCDC8E EQ PUSH2 0x114 JUMPI PUSH4 0xF98D06F0 EQ PUSH2 0xEB JUMPI PUSH0 DUP1 REVERT JUMPDEST CALLVALUE PUSH2 0x111 JUMPI DUP1 PUSH1 0x3 NOT CALLDATASIZE ADD SLT PUSH2 0x111 JUMPI SLOAD PUSH1 0x40 MLOAD PUSH1 0x1 PUSH1 0x1 PUSH1 0xA0 SHL SUB SWAP1 SWAP2 AND DUP2 MSTORE PUSH1 0x20 SWAP1 RETURN JUMPDEST DUP1 REVERT JUMPDEST POP CALLVALUE PUSH2 0x111 JUMPI PUSH1 0x40 CALLDATASIZE PUSH1 0x3 NOT ADD SLT PUSH2 0x111 JUMPI PUSH1 0xC PUSH1 0x4 CALLDATALOAD PUSH2 0x149 PUSH2 0x136 PUSH2 0x15CF JUMP JUMPDEST SWAP2 PUSH2 0x144 PUSH1 0x3 SLOAD DUP3 LT PUSH2 0x1631 JUMP JUMPDEST PUSH2 0x15E5 JUMP JUMPDEST POP SWAP1 PUSH1 0x1 DUP1 PUSH1 0xA0 SHL SUB AND PUSH0 MSTORE ADD PUSH1 0x20 MSTORE PUSH1 0x20 PUSH1 0x40 PUSH0 KECCAK256 SLOAD PUSH1 0x40 MLOAD SWAP1 DUP2 MSTORE RETURN JUMPDEST POP PUSH1 0x40 CALLDATASIZE PUSH1 0x3 NOT ADD SLT PUSH2 0x111 JUMPI PUSH1 0x24 CALLDATALOAD DUP1 PUSH1 0x7 SIGNEXTEND DUP2 SUB PUSH2 0x264 JUMPI PUSH2 0x18D PUSH1 0x4 CALLDATALOAD PUSH2 0x1615 JUMP JUMPDEST POP PUSH1 0x1 DUP2 ADD DUP1 SLOAD SWAP2 SWAP3 SWAP2 PUSH1 0x1 PUSH1 0x1 PUSH1 0xA0 SHL SUB AND PUSH2 0x230 JUMPI PUSH1 0x2 DUP4 ADD SLOAD CALLVALUE SUB PUSH2 0x1FA JUMPI DUP1 SLOAD PUSH1 0x1 PUSH1 0x1 PUSH1 0xA0 SHL SUB NOT AND CALLER OR SWAP1 SSTORE PUSH1 0x3 SWAP1 SWAP2 ADD DUP1 SLOAD PUSH17 0xFFFFFFFFFFFFFFFF000000000000000000 NOT AND PUSH8 0xFFFFFFFFFFFFFFFF PUSH1 0x48 SHL PUSH1 0x48 SWAP4 SWAP1 SWAP4 SHL SWAP3 SWAP1 SWAP3 AND SWAP2 SWAP1 SWAP2 OR SWAP1 SSTORE JUMPDEST DUP1 RETURN JUMPDEST PUSH1 0x40 MLOAD PUSH3 0x461BCD PUSH1 0xE5 SHL DUP2 MSTORE PUSH1 0x20 PUSH1 0x4 DUP3 ADD MSTORE PUSH1 0xE PUSH1 0x24 DUP3 ADD MSTORE PUSH14 0xA6E8C2D6CA40DAD2E6DAC2E8C6D PUSH1 0x93 SHL PUSH1 0x44 DUP3 ADD MSTORE PUSH1 0x64 SWAP1 REVERT JUMPDEST PUSH1 0x40 MLOAD PUSH3 0x461BCD PUSH1 0xE5 SHL DUP2 MSTORE PUSH1 0x20 PUSH1 0x4 DUP3 ADD MSTORE PUSH1 0xC PUSH1 0x24 DUP3 ADD MSTORE PUSH12 0x105B1C9958591E48199D5B1B PUSH1 0xA2 SHL PUSH1 0x44 DUP3 ADD MSTORE PUSH1 0x64 SWAP1 REVERT JUMPDEST POP DUP1 REVERT JUMPDEST POP PUSH1 0x20 CALLDATASIZE PUSH1 0x3 NOT ADD SLT PUSH2 0x111 JUMPI PUSH1 0x4 CALLDATALOAD DUP1 PUSH1 0x7 SIGNEXTEND DUP1 SWAP2 SUB PUSH2 0x264 JUMPI CALLVALUE ISZERO PUSH2 0x3FC JUMPI PUSH1 0x40 MLOAD SWAP1 PUSH2 0x296 DUP3 PUSH2 0x1673 JUMP JUMPDEST CALLER DUP3 MSTORE PUSH1 0x20 DUP3 ADD SWAP1 DUP4 DUP3 MSTORE PUSH1 0x40 DUP4 ADD CALLVALUE DUP2 MSTORE PUSH1 0x60 DUP5 ADD SWAP2 DUP6 DUP4 MSTORE PUSH1 0x80 DUP6 ADD SWAP1 DUP2 MSTORE PUSH1 0xA0 DUP6 ADD SWAP1 DUP7 DUP3 MSTORE PUSH1 0xC0 DUP7 ADD SWAP3 DUP8 DUP5 MSTORE PUSH1 0xE0 DUP8 ADD SWAP6 DUP9 DUP8 MSTORE PUSH1 0x2 SLOAD PUSH1 0x1 PUSH1 0x40 SHL DUP2 LT ISZERO PUSH2 0x3E8 JUMPI DUP1 PUSH1 0x1 PUSH2 0x2EE SWAP3 ADD PUSH1 0x2 SSTORE PUSH2 0x1615 JUMP JUMPDEST SWAP9 SWAP1 SWAP9 PUSH2 0x3D4 JUMPI MLOAD DUP9 SLOAD PUSH1 0x1 PUSH1 0x1 PUSH1 0xA0 SHL SUB SWAP2 DUP3 AND PUSH1 0x1 PUSH1 0x1 PUSH1 0xA0 SHL SUB NOT SWAP2 DUP3 AND OR DUP11 SSTORE SWAP2 MLOAD PUSH1 0x1 DUP11 ADD DUP1 SLOAD SWAP2 SWAP1 SWAP3 AND SWAP3 AND SWAP2 SWAP1 SWAP2 OR SWAP1 SSTORE MLOAD PUSH1 0x2 DUP8 ADD SSTORE SWAP3 MLOAD PUSH1 0x3 DUP7 ADD DUP1 SLOAD SWAP5 MLOAD SWAP3 MLOAD PUSH1 0x48 SHL PUSH8 0xFFFFFFFFFFFFFFFF PUSH1 0x48 SHL AND PUSH1 0x8 SWAP4 SWAP1 SWAP4 SHL PUSH9 0xFFFFFFFFFFFFFFFF00 AND SWAP2 ISZERO ISZERO PUSH1 0xFF AND PUSH17 0xFFFFFFFFFFFFFFFFFFFFFFFFFFFFFFFFFF NOT SWAP1 SWAP6 AND SWAP5 SWAP1 SWAP5 OR OR OR DUP3 SSTORE PUSH1 0x4 SWAP3 SWAP2 PUSH2 0x3B0 SWAP2 MLOAD DUP2 SLOAD PUSH1 0x88 SWAP2 SWAP1 SWAP2 SHL PUSH8 0xFFFFFFFFFFFFFFFF PUSH1 0x88 SHL AND PUSH8 0xFFFFFFFFFFFFFFFF PUSH1 0x88 SHL NOT SWAP1 SWAP2 AND OR SWAP1 SSTORE JUMP JUMPDEST MLOAD SWAP2 ADD DUP1 SLOAD PUSH1 0x1 PUSH1 0x1 PUSH1 0xA0 SHL SUB NOT AND PUSH1 0x1 PUSH1 0x1 PUSH1 0xA0 SHL SUB SWAP3 SWAP1 SWAP3 AND SWAP2 SWAP1 SWAP2 OR SWAP1 SSTORE DUP1 RETURN JUMPDEST PUSH4 0x4E487B71 PUSH1 0xE0 SHL DUP11 MSTORE PUSH1 0x4 DUP11 SWAP1 MSTORE PUSH1 0x24 DUP11 REVERT JUMPDEST PUSH4 0x4E487B71 PUSH1 0xE0 SHL DUP11 MSTORE PUSH1 0x41 PUSH1 0x4 MSTORE PUSH1 0x24 DUP11 REVERT JUMPDEST PUSH1 0x40 MLOAD PUSH3 0x461BCD PUSH1 0xE5 SHL DUP2 MSTORE PUSH1 0x20 PUSH1 0x4 DUP3 ADD MSTORE PUSH1 0x12 PUSH1 0x24 DUP3 ADD MSTORE PUSH18 0x4E6565642045544820746F20626174746C65 PUSH1 0x70 SHL PUSH1 0x44 DUP3 ADD MSTORE PUSH1 0x64 SWAP1 REVERT JUMPDEST POP PUSH1 0x20 CALLDATASIZE PUSH1 0x3 NOT ADD SLT PUSH2 0x111 JUMPI PUSH1 0x4 CALLDATALOAD PUSH2 0x453 PUSH1 0x3 SLOAD DUP3 LT PUSH2 0x1631 JUMP JUMPDEST PUSH2 0x45C DUP2 PUSH2 0x15E5 JUMP JUMPDEST POP PUSH2 0x470 PUSH1 0xFF PUSH1 0x7 DUP4 ADD SLOAD PUSH1 0xA0 SHR AND PUSH2 0x17F1 JUMP JUMPDEST PUSH1 0x9 DUP2 ADD SLOAD TIMESTAMP LT PUSH2 0x585 JUMPI PUSH1 0x1 PUSH1 0x1 PUSH1 0x40 SHL SUB PUSH1 0xA DUP3 ADD SLOAD AND PUSH2 0x540 JUMPI PUSH1 0xB ADD SLOAD DUP1 ISZERO PUSH2 0x506 JUMPI PUSH2 0x4D8 SWAP1 PUSH1 0x40 MLOAD PUSH1 0x20 DUP2 ADD SWAP2 TIMESTAMP DUP4 MSTORE PREVRANDAO PUSH1 0x40 DUP4 ADD MSTORE CALLER PUSH1 0x60 SHL PUSH1 0x60 DUP4 ADD MSTORE DUP5 PUSH1 0x74 DUP4 ADD MSTORE PUSH1 0x94 DUP3 ADD MSTORE PUSH1 0x94 DUP2 MSTORE PUSH2 0x4CF PUSH1 0xB4 DUP3 PUSH2 0x168F JUMP JUMPDEST MLOAD SWAP1 KECCAK256 DUP3 PUSH2 0x1866 JUMP JUMPDEST PUSH32 0x4B211700ECF92B8CE477DE62320459E015235561CADB1FF1D4C0643DCBC00E1 PUSH1 0x20 PUSH1 0x40 MLOAD PUSH1 0x1 DUP2 MSTORE LOG2 DUP1 RETURN JUMPDEST PUSH1 0x40 MLOAD PUSH3 0x461BCD PUSH1 0xE5 SHL DUP2 MSTORE PUSH1 0x20 PUSH1 0x4 DUP3 ADD MSTORE PUSH1 0x12 PUSH1 0x24 DUP3 ADD MSTORE PUSH18 0x4E6F20706C617965727320696E2067616D65 PUSH1 0x70 SHL PUSH1 0x44 DUP3 ADD MSTORE PUSH1 0x64 SWAP1 REVERT JUMPDEST PUSH1 0x40 MLOAD PUSH3 0x461BCD PUSH1 0xE5 SHL DUP2 MSTORE PUSH1 0x20 PUSH1 0x4 DUP3 ADD MSTORE PUSH1 0x1F PUSH1 0x24 DUP3 ADD MSTORE PUSH32 0x52616E646F6D206E756D62657220616C72656164792072657175657374656400 PUSH1 0x44 DUP3 ADD MSTORE PUSH1 0x64 SWAP1 REVERT JUMPDEST PUSH1 0x40 MLOAD PUSH3 0x461BCD PUSH1 0xE5 SHL DUP2 MSTORE PUSH1 0x20 PUSH1 0x4 DUP3 ADD MSTORE PUSH1 0x16 PUSH1 0x24 DUP3 ADD MSTORE PUSH22 0x11D85B59481A185CC81B9BDD08195B991959081E595D PUSH1 0x52 SHL PUSH1 0x44 DUP3 ADD MSTORE PUSH1 0x64 SWAP1 REVERT JUMPDEST POP CALLVALUE PUSH2 0x111 JUMPI PUSH1 0x20 CALLDATASIZE PUSH1 0x3 NOT ADD SLT PUSH2 0x111 JUMPI PUSH1 0xA0 PUSH2 0x5EA PUSH1 0x4 CALLDATALOAD PUSH2 0x144 PUSH1 0x3 SLOAD DUP3 LT PUSH2 0x1631 JUMP JUMPDEST POP DUP1 SLOAD SWAP1 PUSH1 0x1 DUP1 DUP5 SHL SUB PUSH1 0x1 DUP3 ADD SLOAD AND SWAP1 PUSH1 0x2 DUP2 ADD SLOAD PUSH1 0xB PUSH1 0x3 DUP4 ADD SLOAD SWAP3 ADD SLOAD SWAP3 PUSH1 0x40 MLOAD SWAP5 DUP6 MSTORE PUSH1 0x20 DUP6 ADD MSTORE PUSH1 0x40 DUP5 ADD MSTORE PUSH1 0x60 DUP4 ADD MSTORE PUSH1 0x80 DUP3 ADD MSTORE RETURN JUMPDEST POP PUSH1 0x40 CALLDATASIZE PUSH1 0x3 NOT ADD SLT PUSH2 0x111 JUMPI PUSH1 0x4 CALLDATALOAD PUSH1 0x24 CALLDATALOAD SWAP1 PUSH2 0x648 PUSH1 0x3 SLOAD DUP3 LT PUSH2 0x1631 JUMP JUMPDEST PUSH2 0x651 DUP2 PUSH2 0x15E5 JUMP JUMPDEST POP PUSH2 0x665 PUSH1 0xFF PUSH1 0x7 DUP4 ADD SLOAD PUSH1 0xA0 SHR AND PUSH2 0x17F1 JUMP JUMPDEST PUSH1 0x9 DUP2 ADD SLOAD TIMESTAMP LT ISZERO PUSH2 0x7D5 JUMPI PUSH1 0x2 DUP2 ADD SLOAD CALLVALUE SUB PUSH2 0x79A JUMPI PUSH1 0x4 DUP2 ADD SLOAD DUP4 LT ISZERO DUP1 PUSH2 0x78C JUMPI JUMPDEST ISZERO PUSH2 0x752 JUMPI PUSH1 0xC DUP2 ADD SWAP1 PUSH1 0x1 DUP1 PUSH1 0xA0 SHL SUB CALLER AND PUSH0 MSTORE DUP2 PUSH1 0x20 MSTORE PUSH1 0x40 PUSH0 KECCAK256 SLOAD PUSH2 0x70D JUMPI PUSH1 0x3 SWAP2 PUSH2 0x6BC CALLER PUSH1 0xB DUP5 ADD PUSH2 0x16E6 JUMP JUMPDEST PUSH1 0x1 DUP1 PUSH1 0xA0 SHL SUB CALLER AND PUSH0 MSTORE PUSH1 0x20 MSTORE DUP4 PUSH1 0x40 PUSH0 KECCAK256 SSTORE ADD PUSH2 0x6DC CALLVALUE DUP3 SLOAD PUSH2 0x16B0 JUMP JUMPDEST SWAP1 SSTORE PUSH1 0x40 MLOAD SWAP2 DUP3 MSTORE PUSH32 0x3DFBE1FCB4E2D61F3B4A0C93D8F814C92250618B3387F396CC9FC9FAFE2C203 PUSH1 0x20 CALLER SWAP4 LOG3 DUP1 RETURN JUMPDEST PUSH1 0x40 MLOAD PUSH3 0x461BCD PUSH1 0xE5 SHL DUP2 MSTORE PUSH1 0x20 PUSH1 0x4 DUP3 ADD MSTORE PUSH1 0x18 PUSH1 0x24 DUP3 ADD MSTORE PUSH32 0x416C7265616479206A6F696E656420746869732067616D650000000000000000 PUSH1 0x44 DUP3 ADD MSTORE PUSH1 0x64 SWAP1 REVERT JUMPDEST PUSH1 0x40 MLOAD PUSH3 0x461BCD PUSH1 0xE5 SHL DUP2 MSTORE PUSH1 0x20 PUSH1 0x4 DUP3 ADD MSTORE PUSH1 0x12 PUSH1 0x24 DUP3 ADD MSTORE PUSH18 0x4775657373206F7574206F662072616E6765 PUSH1 0x70 SHL PUSH1 0x44 DUP3 ADD MSTORE PUSH1 0x64 SWAP1 REVERT JUMPDEST POP PUSH1 0x5 DUP2 ADD SLOAD DUP4 GT ISZERO PUSH2 0x68A JUMP JUMPDEST PUSH1 0x40 MLOAD PUSH3 0x461BCD PUSH1 0xE5 SHL DUP2 MSTORE PUSH1 0x20 PUSH1 0x4 DUP3 ADD MSTORE PUSH1 0x13 PUSH1 0x24 DUP3 ADD MSTORE PUSH19 0x496E636F727265637420656E74727920666565 PUSH1 0x68 SHL PUSH1 0x44 DUP3 ADD MSTORE PUSH1 0x64 SWAP1 REVERT JUMPDEST PUSH1 0x40 MLOAD PUSH3 0x461BCD PUSH1 0xE5 SHL DUP2 MSTORE PUSH1 0x20 PUSH1 0x4 DUP3 ADD MSTORE PUSH1 0xE PUSH1 0x24 DUP3 ADD MSTORE PUSH14 0x11D85B59481A185CC8195B991959 PUSH1 0x92 SHL PUSH1 0x44 DUP3 ADD MSTORE PUSH1 0x64 SWAP1 REVERT JUMPDEST POP CALLVALUE PUSH2 0x111 JUMPI PUSH1 0x20 CALLDATASIZE PUSH1 0x3 NOT ADD SLT PUSH2 0x111 JUMPI PUSH1 0x4 CALLDATALOAD SWAP1 PUSH1 0x2 SLOAD DUP3 LT ISZERO PUSH2 0x111 JUMPI PUSH2 0x100 PUSH2 0x837 DUP4 PUSH2 0x1615 JUMP JUMPDEST POP DUP1 SLOAD PUSH1 0x1 DUP3 ADD SLOAD PUSH1 0x2 DUP4 ADD SLOAD PUSH1 0x3 DUP5 ADD SLOAD PUSH1 0x4 SWAP1 SWAP5 ADD SLOAD PUSH1 0x40 DUP1 MLOAD PUSH1 0x1 PUSH1 0x1 PUSH1 0xA0 SHL SUB SWAP6 DUP7 AND DUP2 MSTORE SWAP4 DUP6 AND PUSH1 0x20 DUP6 ADD MSTORE DUP4 ADD SWAP2 SWAP1 SWAP2 MSTORE PUSH1 0xFF DUP5 AND ISZERO ISZERO PUSH1 0x60 DUP4 ADD MSTORE PUSH1 0x8 DUP5 SWAP1 SHR PUSH1 0x7 SWAP1 DUP2 SIGNEXTEND PUSH1 0x80 DUP5 ADD MSTORE PUSH1 0x48 DUP6 SWAP1 SHR DUP2 SIGNEXTEND PUSH1 0xA0 DUP5 ADD MSTORE PUSH1 0x88 SWAP5 SWAP1 SWAP5 SHR SWAP1 SWAP4 SIGNEXTEND PUSH1 0xC0 DUP3 ADD MSTORE SWAP2 AND PUSH1 0xE0 DUP3 ADD MSTORE RETURN JUMPDEST POP CALLVALUE PUSH2 0x111 JUMPI PUSH1 0x20 CALLDATASIZE PUSH1 0x3 NOT ADD SLT PUSH2 0x111 JUMPI PUSH1 0x40 PUSH1 0x20 SWAP2 PUSH1 0x1 PUSH1 0x1 PUSH1 0x40 SHL SUB PUSH2 0x8D2 PUSH2 0x15B9 JUMP JUMPDEST AND DUP2 MSTORE PUSH1 0x4 DUP4 MSTORE KECCAK256 SLOAD PUSH1 0x40 MLOAD SWAP1 DUP2 MSTORE RETURN JUMPDEST POP CALLVALUE PUSH2 0x111 JUMPI DUP1 PUSH1 0x3 NOT CALLDATASIZE ADD SLT PUSH2 0x111 JUMPI PUSH1 0x2 SLOAD PUSH1 0x1 PUSH1 0x1 PUSH1 0x40 SHL SUB DUP2 GT PUSH2 0xA87 JUMPI PUSH1 0x40 MLOAD PUSH2 0x918 PUSH1 0x20 DUP4 PUSH1 0x5 SHL ADD DUP3 PUSH2 0x168F JUMP JUMPDEST DUP2 DUP2 MSTORE PUSH1 0x2 DUP4 MSTORE PUSH1 0x20 DUP2 ADD SWAP2 DUP4 PUSH32 0x405787FA12A823E0F2B7631CC41B3BA8828B3321CA811111FA75CD3AA3BB5ACE DUP5 JUMPDEST DUP4 DUP4 LT PUSH2 0x9FE JUMPI DUP7 DUP6 DUP8 PUSH1 0x40 MLOAD SWAP3 DUP4 SWAP3 PUSH1 0x20 DUP5 ADD SWAP1 PUSH1 0x20 DUP6 MSTORE MLOAD DUP1 SWAP2 MSTORE PUSH1 0x40 DUP5 ADD SWAP3 SWAP2 JUMPDEST DUP2 DUP2 LT PUSH2 0x97A JUMPI POP POP POP SUB SWAP1 RETURN JUMPDEST SWAP2 SWAP4 POP SWAP2 PUSH1 0x20 PUSH2 0x100 PUSH1 0x1 SWAP3 DUP7 MLOAD DUP5 DUP1 PUSH1 0xA0 SHL SUB DUP2 MLOAD AND DUP3 MSTORE DUP5 DUP1 PUSH1 0xA0 SHL SUB DUP5 DUP3 ADD MLOAD AND DUP5 DUP4 ADD MSTORE PUSH1 0x40 DUP2 ADD MLOAD PUSH1 0x40 DUP4 ADD MSTORE PUSH1 0x60 DUP2 ADD MLOAD ISZERO ISZERO PUSH1 0x60 DUP4 ADD MSTORE PUSH1 0x80 DUP2 ADD MLOAD PUSH1 0x7 SIGNEXTEND PUSH1 0x80 DUP4 ADD MSTORE PUSH1 0xA0 DUP2 ADD MLOAD PUSH1 0x7 SIGNEXTEND PUSH1 0xA0 DUP4 ADD MSTORE PUSH1 0xC0 DUP2 ADD MLOAD PUSH1 0x7 SIGNEXTEND PUSH1 0xC0 DUP4 ADD MSTORE PUSH1 0xE0 DUP6 DUP1 PUSH1 0xA0 SHL SUB SWAP2 ADD MLOAD AND PUSH1 0xE0 DUP3 ADD MSTORE ADD SWAP5 ADD SWAP2 ADD SWAP2 DUP5 SWAP4 SWAP3 PUSH2 0x96C JUMP JUMPDEST PUSH1 0x5 PUSH1 0x20 PUSH1 0x1 SWAP3 PUSH1 0x40 MLOAD PUSH2 0xA11 DUP2 PUSH2 0x1673 JUMP JUMPDEST DUP5 DUP1 PUSH1 0xA0 SHL SUB DUP7 SLOAD AND DUP2 MSTORE DUP5 DUP1 PUSH1 0xA0 SHL SUB DUP6 DUP8 ADD SLOAD AND DUP4 DUP3 ADD MSTORE PUSH1 0x2 DUP7 ADD SLOAD PUSH1 0x40 DUP3 ADD MSTORE PUSH1 0x3 DUP7 ADD SLOAD PUSH1 0xFF DUP2 AND ISZERO ISZERO PUSH1 0x60 DUP4 ADD MSTORE DUP1 PUSH1 0x8 SHR PUSH1 0x7 SIGNEXTEND PUSH1 0x80 DUP4 ADD MSTORE DUP1 PUSH1 0x48 SHR PUSH1 0x7 SIGNEXTEND PUSH1 0xA0 DUP4 ADD MSTORE PUSH1 0x88 SHR PUSH1 0x7 SIGNEXTEND PUSH1 0xC0 DUP3 ADD MSTORE DUP5 DUP1 PUSH1 0xA0 SHL SUB PUSH1 0x4 DUP8 ADD SLOAD AND PUSH1 0xE0 DUP3 ADD MSTORE DUP2 MSTORE ADD SWAP3 ADD SWAP3 ADD SWAP2 SWAP1 PUSH2 0x948 JUMP JUMPDEST PUSH4 0x4E487B71 PUSH1 0xE0 SHL DUP3 MSTORE PUSH1 0x41 PUSH1 0x4 MSTORE PUSH1 0x24 DUP3 REVERT JUMPDEST POP CALLVALUE PUSH2 0x111 JUMPI PUSH1 0x20 CALLDATASIZE PUSH1 0x3 NOT ADD SLT PUSH2 0x111 JUMPI PUSH1 0x4 CALLDATALOAD SWAP1 PUSH1 0x3 SLOAD DUP3 LT ISZERO PUSH2 0x111 JUMPI PUSH2 0x1A0 PUSH2 0xAC7 DUP4 PUSH2 0x15E5 JUMP JUMPDEST POP DUP1 SLOAD SWAP1 PUSH1 0x1 DUP1 PUSH1 0xA0 SHL SUB PUSH1 0x1 DUP3 ADD SLOAD AND SWAP1 PUSH1 0x2 DUP2 ADD SLOAD PUSH1 0xFF PUSH1 0x3 DUP4 ADD SLOAD PUSH1 0x4 DUP5 ADD SLOAD PUSH1 0x5 DUP6 ADD SLOAD PUSH1 0x6 DUP7 ADD SLOAD SWAP2 PUSH1 0x7 DUP8 ADD SLOAD SWAP4 PUSH1 0x8 DUP9 ADD SLOAD SWAP7 PUSH1 0x1 PUSH1 0x1 PUSH1 0x40 SHL SUB PUSH1 0xA PUSH1 0x9 DUP12 ADD SLOAD SWAP11 ADD SLOAD AND SWAP10 PUSH1 0x40 MLOAD SWAP12 DUP13 MSTORE PUSH1 0x20 DUP13 ADD MSTORE PUSH1 0x40 DUP12 ADD MSTORE PUSH1 0x60 DUP11 ADD MSTORE PUSH1 0x80 DUP10 ADD MSTORE PUSH1 0xA0 DUP9 ADD MSTORE PUSH1 0xC0 DUP8 ADD MSTORE PUSH1 0x1 DUP1 PUSH1 0xA0 SHL SUB DUP2 AND PUSH1 0xE0 DUP8 ADD MSTORE DUP2 DUP2 PUSH1 0xA0 SHR AND ISZERO ISZERO PUSH2 0x100 DUP8 ADD MSTORE PUSH1 0xA8 SHR AND ISZERO ISZERO PUSH2 0x120 DUP6 ADD MSTORE PUSH2 0x140 DUP5 ADD MSTORE PUSH2 0x160 DUP4 ADD MSTORE PUSH2 0x180 DUP3 ADD MSTORE RETURN JUMPDEST POP CALLVALUE PUSH2 0x111 JUMPI PUSH1 0x60 CALLDATASIZE PUSH1 0x3 NOT ADD SLT PUSH2 0x111 JUMPI PUSH2 0xB8F PUSH2 0x15B9 JUMP JUMPDEST PUSH2 0xB97 PUSH2 0x15CF JUMP JUMPDEST POP PUSH1 0x1 SLOAD PUSH1 0x1 PUSH1 0x1 PUSH1 0xA0 SHL SUB AND DUP1 ISZERO PUSH2 0xC64 JUMPI CALLER SUB PUSH2 0xC13 JUMPI PUSH1 0x1 PUSH1 0x1 PUSH1 0x40 SHL SUB AND DUP2 MSTORE PUSH1 0x4 PUSH1 0x20 MSTORE PUSH1 0x40 DUP2 KECCAK256 SLOAD PUSH1 0x3 SLOAD DUP2 LT ISZERO PUSH2 0xBDC JUMPI PUSH2 0x1F7 SWAP1 PUSH1 0x44 CALLDATALOAD SWAP1 PUSH2 0x1866 JUMP JUMPDEST PUSH1 0x40 MLOAD PUSH3 0x461BCD PUSH1 0xE5 SHL DUP2 MSTORE PUSH1 0x20 PUSH1 0x4 DUP3 ADD MSTORE PUSH1 0xF PUSH1 0x24 DUP3 ADD MSTORE PUSH15 0x125B9D985B1A590819D85B59481251 PUSH1 0x8A SHL PUSH1 0x44 DUP3 ADD MSTORE PUSH1 0x64 SWAP1 REVERT JUMPDEST PUSH1 0x40 MLOAD PUSH3 0x461BCD PUSH1 0xE5 SHL DUP2 MSTORE PUSH1 0x20 PUSH1 0x4 DUP3 ADD MSTORE PUSH1 0x23 PUSH1 0x24 DUP3 ADD MSTORE PUSH32 0x4F6E6C7920456E74726F70792063616E2063616C6C20746869732066756E6374 PUSH1 0x44 DUP3 ADD MSTORE PUSH3 0x34B7B7 PUSH1 0xE9 SHL PUSH1 0x64 DUP3 ADD MSTORE PUSH1 0x84 SWAP1 REVERT JUMPDEST PUSH1 0x40 MLOAD PUSH3 0x461BCD PUSH1 0xE5 SHL DUP2 MSTORE PUSH1 0x20 PUSH1 0x4 DUP3 ADD MSTORE PUSH1 0x17 PUSH1 0x24 DUP3 ADD MSTORE PUSH32 0x456E74726F70792061646472657373206E6F7420736574000000000000000000 PUSH1 0x44 DUP3 ADD MSTORE PUSH1 0x64 SWAP1 REVERT JUMPDEST POP CALLVALUE PUSH2 0x111 JUMPI PUSH1 0x20 CALLDATASIZE PUSH1 0x3 NOT ADD SLT PUSH2 0x111 JUMPI PUSH1 0x40 PUSH2 0xCD0 PUSH1 0x4 CALLDATALOAD PUSH2 0x144 PUSH1 0x3 SLOAD DUP3 LT PUSH2 0x1631 JUMP JUMPDEST POP PUSH1 0x9 PUSH1 0x8 DUP3 ADD SLOAD SWAP2 ADD SLOAD DUP3 MLOAD SWAP2 DUP3 MSTORE PUSH1 0x20 DUP3 ADD MSTORE RETURN JUMPDEST POP PUSH1 0x40 CALLDATASIZE PUSH1 0x3 NOT ADD SLT PUSH2 0x10FE JUMPI PUSH1 0x24 CALLDATALOAD PUSH1 0x1 PUSH1 0x1 PUSH1 0x40 SHL SUB DUP2 GT PUSH2 0x10FE JUMPI CALLDATASIZE PUSH1 0x23 DUP3 ADD SLT ISZERO PUSH2 0x10FE JUMPI DUP1 PUSH1 0x4 ADD CALLDATALOAD PUSH1 0x1 PUSH1 0x1 PUSH1 0x40 SHL SUB DUP2 GT PUSH2 0x10FE JUMPI PUSH1 0x24 DUP3 ADD SWAP2 PUSH1 0x24 CALLDATASIZE SWAP2 DUP4 PUSH1 0x5 SHL ADD ADD GT PUSH2 0x10FE JUMPI PUSH2 0xD42 PUSH1 0x4 CALLDATALOAD PUSH2 0x1615 JUMP JUMPDEST POP PUSH1 0x3 DUP2 ADD SWAP3 PUSH1 0xFF DUP5 SLOAD AND PUSH2 0x11BC JUMPI PUSH1 0x1 DUP3 ADD DUP1 SLOAD SWAP1 SWAP4 SWAP1 PUSH1 0x1 PUSH1 0x1 PUSH1 0xA0 SHL SUB AND ISZERO PUSH2 0x1185 JUMPI PUSH0 SLOAD PUSH1 0x40 MLOAD PUSH4 0xD47EED45 PUSH1 0xE0 SHL DUP2 MSTORE SWAP2 SWAP1 PUSH1 0x1 PUSH1 0x1 PUSH1 0xA0 SHL SUB AND PUSH1 0x20 DUP4 DUP1 PUSH2 0xD94 DUP6 DUP9 PUSH1 0x4 DUP5 ADD PUSH2 0x1727 JUMP JUMPDEST SUB DUP2 DUP5 GAS STATICCALL SWAP3 DUP4 ISZERO PUSH2 0x10F3 JUMPI PUSH0 SWAP4 PUSH2 0x1151 JUMPI JUMPDEST POP DUP3 CALLVALUE LT PUSH2 0x1102 JUMPI DUP1 EXTCODESIZE ISZERO PUSH2 0x10FE JUMPI PUSH1 0x40 MLOAD PUSH4 0x1DF3CBC5 PUSH1 0xE3 SHL DUP2 MSTORE SWAP4 PUSH0 SWAP4 DUP6 SWAP4 DUP5 SWAP3 DUP4 SWAP2 PUSH2 0xDD9 SWAP2 PUSH1 0x4 DUP5 ADD PUSH2 0x1727 JUMP JUMPDEST SUB SWAP3 GAS CALL DUP1 ISZERO PUSH2 0x10F3 JUMPI PUSH2 0x10DD JUMPI JUMPDEST POP DUP4 SLOAD PUSH1 0x40 MLOAD PUSH4 0x96834AD3 PUSH1 0xE0 SHL DUP2 MSTORE PUSH32 0xFF61491A931112DDF1BD8147CD1B641375F79F5825126D665480874634FD0ACE PUSH1 0x4 DUP3 ADD MSTORE SWAP2 SWAP1 PUSH1 0x80 SWAP1 DUP4 SWAP1 PUSH1 0x24 SWAP1 DUP3 SWAP1 PUSH1 0x1 PUSH1 0x1 PUSH1 0xA0 SHL SUB AND GAS STATICCALL SWAP2 DUP3 ISZERO PUSH2 0x10D2 JUMPI DUP6 SWAP3 PUSH2 0x101F JUMPI JUMPDEST POP DUP2 MLOAD DUP5 SLOAD PUSH8 0xFFFFFFFFFFFFFFFF PUSH1 0x88 SHL NOT AND PUSH8 0xFFFFFFFFFFFFFFFF PUSH1 0x88 SHL PUSH1 0x88 DUP4 SWAP1 SHL AND OR DUP6 SSTORE PUSH1 0x1 PUSH1 0x1 PUSH1 0x40 SHL SUB SWAP1 PUSH2 0xEAE SWAP1 PUSH2 0xE96 SWAP1 PUSH1 0x7 SIGNEXTEND DUP4 PUSH2 0xE9B PUSH2 0xE96 DUP11 SLOAD SWAP4 DUP5 PUSH1 0x8 SHR PUSH1 0x7 SIGNEXTEND SWAP1 PUSH2 0x17CA JUMP JUMPDEST PUSH2 0x1832 JUMP JUMPDEST AND SWAP6 MLOAD PUSH1 0x7 SIGNEXTEND SWAP1 PUSH1 0x48 SHR PUSH1 0x7 SIGNEXTEND SWAP1 PUSH2 0x17CA JUMP JUMPDEST AND SWAP2 PUSH1 0x2 DUP3 ADD SWAP1 DUP2 SLOAD SWAP4 DUP5 PUSH1 0x1 SHL SWAP5 DUP1 DUP7 DIV PUSH1 0x2 EQ SWAP1 ISZERO OR ISZERO PUSH2 0x100B JUMPI SWAP2 DUP2 DUP4 DUP10 SWAP8 SWAP7 SWAP5 DUP9 SWAP7 SWAP5 LT PUSH0 EQ PUSH2 0xF3E JUMPI POP POP DUP2 SLOAD PUSH1 0x4 SWAP1 SWAP3 ADD DUP1 SLOAD PUSH1 0x1 PUSH1 0x1 PUSH1 0xA0 SHL SUB NOT AND PUSH1 0x1 PUSH1 0x1 PUSH1 0xA0 SHL SUB SWAP4 SWAP1 SWAP4 AND SWAP3 DUP4 OR SWAP1 SSTORE POP SWAP2 SWAP3 POP DUP3 SWAP2 DUP3 SWAP2 SWAP1 DUP3 DUP3 ISZERO PUSH2 0xF35 JUMPI JUMPDEST CALL ISZERO PUSH2 0xF28 JUMPI JUMPDEST DUP1 SLOAD PUSH1 0xFF NOT AND PUSH1 0x1 OR SWAP1 SSTORE DUP1 RETURN JUMPDEST POP PUSH1 0x40 MLOAD SWAP1 RETURNDATASIZE SWAP1 DUP3 RETURNDATACOPY RETURNDATASIZE SWAP1 REVERT JUMPDEST POP PUSH2 0x8FC PUSH2 0xF13 JUMP JUMPDEST LT ISZERO PUSH2 0xF93 JUMPI POP DUP4 SLOAD PUSH1 0x4 SWAP1 SWAP2 ADD DUP1 SLOAD PUSH1 0x1 PUSH1 0x1 PUSH1 0xA0 SHL SUB NOT AND PUSH1 0x1 PUSH1 0x1 PUSH1 0xA0 SHL SUB SWAP3 DUP4 AND OR SWAP1 SSTORE SWAP3 SLOAD SWAP2 SWAP3 DUP4 SWAP3 DUP4 SWAP3 SWAP2 AND DUP3 DUP3 ISZERO PUSH2 0xF8A JUMPI JUMPDEST CALL PUSH2 0xF1A JUMPI POP PUSH1 0x40 MLOAD SWAP1 RETURNDATASIZE SWAP1 DUP3 RETURNDATACOPY RETURNDATASIZE SWAP1 REVERT JUMPDEST POP PUSH2 0x8FC PUSH2 0xF78 JUMP JUMPDEST PUSH1 0x4 DUP3 ADD DUP1 SLOAD PUSH1 0x1 PUSH1 0x1 PUSH1 0xA0 SHL SUB NOT AND SWAP1 SSTORE SWAP1 SLOAD DUP2 SLOAD SWAP2 SWAP4 SWAP3 POP DUP3 SWAP2 DUP3 SWAP2 DUP3 SWAP2 SWAP1 PUSH1 0x1 PUSH1 0x1 PUSH1 0xA0 SHL SUB AND DUP3 DUP3 ISZERO PUSH2 0x1002 JUMPI JUMPDEST CALL ISZERO PUSH2 0xFF7 JUMPI SWAP1 SLOAD SWAP1 SLOAD DUP3 SWAP2 DUP3 SWAP2 DUP3 SWAP2 PUSH1 0x1 PUSH1 0x1 PUSH1 0xA0 SHL SUB AND DUP3 DUP3 ISZERO PUSH2 0xF8A JUMPI CALL PUSH2 0xF1A JUMPI POP PUSH1 0x40 MLOAD SWAP1 RETURNDATASIZE SWAP1 DUP3 RETURNDATACOPY RETURNDATASIZE SWAP1 REVERT JUMPDEST PUSH1 0x40 MLOAD RETURNDATASIZE DUP5 DUP3 RETURNDATACOPY RETURNDATASIZE SWAP1 REVERT JUMPDEST POP PUSH2 0x8FC PUSH2 0xFC5 JUMP JUMPDEST PUSH4 0x4E487B71 PUSH1 0xE0 SHL DUP9 MSTORE PUSH1 0x11 PUSH1 0x4 MSTORE PUSH1 0x24 DUP9 REVERT JUMPDEST SWAP1 SWAP2 POP PUSH1 0x80 DUP2 RETURNDATASIZE PUSH1 0x80 GT PUSH2 0x10CA JUMPI JUMPDEST DUP2 PUSH2 0x103B PUSH1 0x80 SWAP4 DUP4 PUSH2 0x168F JUMP JUMPDEST DUP2 ADD SUB SLT PUSH2 0x10C6 JUMPI PUSH1 0x40 MLOAD SWAP1 PUSH1 0x80 DUP3 ADD DUP3 DUP2 LT PUSH1 0x1 PUSH1 0x1 PUSH1 0x40 SHL SUB DUP3 GT OR PUSH2 0x10B2 JUMPI PUSH1 0x40 MSTORE DUP1 MLOAD DUP1 PUSH1 0x7 SIGNEXTEND DUP2 SUB PUSH2 0x10AE JUMPI DUP3 MSTORE PUSH1 0x20 DUP2 ADD MLOAD PUSH1 0x1 PUSH1 0x1 PUSH1 0x40 SHL SUB DUP2 AND DUP2 SUB PUSH2 0x10AE JUMPI PUSH1 0x20 DUP4 ADD MSTORE PUSH1 0x40 DUP2 ADD MLOAD SWAP1 DUP2 PUSH1 0x3 SIGNEXTEND DUP3 SUB PUSH2 0x10AE JUMPI PUSH1 0x60 SWAP2 PUSH1 0x40 DUP5 ADD MSTORE ADD MLOAD PUSH1 0x60 DUP3 ADD MSTORE SWAP1 PUSH0 PUSH2 0xE43 JUMP JUMPDEST DUP7 DUP1 REVERT JUMPDEST PUSH4 0x4E487B71 PUSH1 0xE0 SHL DUP8 MSTORE PUSH1 0x41 PUSH1 0x4 MSTORE PUSH1 0x24 DUP8 REVERT JUMPDEST DUP5 DUP1 REVERT JUMPDEST RETURNDATASIZE SWAP2 POP PUSH2 0x102E JUMP JUMPDEST PUSH1 0x40 MLOAD RETURNDATASIZE DUP8 DUP3 RETURNDATACOPY RETURNDATASIZE SWAP1 REVERT JUMPDEST PUSH2 0x10EA SWAP2 SWAP5 POP PUSH0 SWAP1 PUSH2 0x168F JUMP JUMPDEST PUSH0 SWAP3 PUSH1 0x24 PUSH2 0xDE8 JUMP JUMPDEST PUSH1 0x40 MLOAD RETURNDATASIZE PUSH0 DUP3 RETURNDATACOPY RETURNDATASIZE SWAP1 REVERT JUMPDEST PUSH0 DUP1 REVERT JUMPDEST PUSH1 0x40 MLOAD PUSH3 0x461BCD PUSH1 0xE5 SHL DUP2 MSTORE PUSH1 0x20 PUSH1 0x4 DUP3 ADD MSTORE PUSH1 0x21 PUSH1 0x24 DUP3 ADD MSTORE PUSH32 0x496E73756666696369656E742066656520666F72207072696365207570646174 PUSH1 0x44 DUP3 ADD MSTORE PUSH1 0x65 PUSH1 0xF8 SHL PUSH1 0x64 DUP3 ADD MSTORE PUSH1 0x84 SWAP1 REVERT JUMPDEST SWAP1 SWAP3 POP PUSH1 0x20 DUP2 RETURNDATASIZE PUSH1 0x20 GT PUSH2 0x117D JUMPI JUMPDEST DUP2 PUSH2 0x116D PUSH1 0x20 SWAP4 DUP4 PUSH2 0x168F JUMP JUMPDEST DUP2 ADD SUB SLT PUSH2 0x10FE JUMPI MLOAD SWAP2 PUSH0 PUSH2 0xDA7 JUMP JUMPDEST RETURNDATASIZE SWAP2 POP PUSH2 0x1160 JUMP JUMPDEST PUSH1 0x40 MLOAD PUSH3 0x461BCD PUSH1 0xE5 SHL DUP2 MSTORE PUSH1 0x20 PUSH1 0x4 DUP3 ADD MSTORE PUSH1 0xF PUSH1 0x24 DUP3 ADD MSTORE PUSH15 0x10985D1D1B19481B9BDD08199D5B1B PUSH1 0x8A SHL PUSH1 0x44 DUP3 ADD MSTORE PUSH1 0x64 SWAP1 REVERT JUMPDEST PUSH1 0x40 MLOAD PUSH3 0x461BCD PUSH1 0xE5 SHL DUP2 MSTORE PUSH1 0x20 PUSH1 0x4 DUP3 ADD MSTORE PUSH1 0x10 PUSH1 0x24 DUP3 ADD MSTORE PUSH16 0x105B1C9958591E481C995CDBDB1D9959 PUSH1 0x82 SHL PUSH1 0x44 DUP3 ADD MSTORE PUSH1 0x64 SWAP1 REVERT JUMPDEST CALLVALUE PUSH2 0x10FE JUMPI PUSH0 CALLDATASIZE PUSH1 0x3 NOT ADD SLT PUSH2 0x10FE JUMPI PUSH1 0x1 SLOAD PUSH1 0x40 MLOAD PUSH1 0x1 PUSH1 0x1 PUSH1 0xA0 SHL SUB SWAP1 SWAP2 AND DUP2 MSTORE PUSH1 0x20 SWAP1 RETURN JUMPDEST CALLVALUE PUSH2 0x10FE JUMPI PUSH0 CALLDATASIZE PUSH1 0x3 NOT ADD SLT PUSH2 0x10FE JUMPI PUSH1 0x20 PUSH1 0x3 SLOAD PUSH1 0x40 MLOAD SWAP1 DUP2 MSTORE RETURN JUMPDEST PUSH1 0x80 CALLDATASIZE PUSH1 0x3 NOT ADD SLT PUSH2 0x10FE JUMPI PUSH1 0x64 CALLDATALOAD PUSH1 0x24 CALLDATALOAD PUSH1 0x4 CALLDATALOAD PUSH1 0x44 CALLDATALOAD CALLVALUE DUP3 SWAP1 SUB PUSH2 0x1431 JUMPI DUP1 DUP4 LT ISZERO PUSH2 0x13F6 JUMPI PUSH1 0x3C DUP5 LT PUSH2 0x13B2 JUMPI PUSH1 0x3 SLOAD SWAP3 PUSH1 0x1 PUSH1 0x40 SHL DUP5 LT ISZERO PUSH2 0x139E JUMPI PUSH1 0xC SWAP2 PUSH2 0x131D SWAP2 PUSH1 0x1 DUP7 ADD PUSH1 0x3 SSTORE PUSH2 0x1290 DUP7 PUSH2 0x15E5 JUMP JUMPDEST POP POP PUSH2 0x1300 PUSH2 0x129E DUP8 PUSH2 0x15E5 JUMP JUMPDEST POP DUP8 DUP2 SSTORE PUSH1 0x1 DUP2 ADD DUP1 SLOAD PUSH1 0x1 PUSH1 0x1 PUSH1 0xA0 SHL SUB NOT AND CALLER OR SWAP1 SSTORE PUSH1 0x2 DUP2 ADD DUP8 SWAP1 SSTORE PUSH1 0x3 DUP2 ADD DUP8 SWAP1 SSTORE PUSH1 0x4 DUP2 ADD DUP4 SWAP1 SSTORE PUSH1 0x5 DUP2 ADD DUP5 SWAP1 SSTORE PUSH0 PUSH1 0x6 DUP3 ADD SSTORE PUSH1 0x7 DUP2 ADD DUP1 SLOAD PUSH1 0x1 PUSH1 0x1 PUSH1 0xB0 SHL SUB NOT AND PUSH1 0x1 PUSH1 0xA0 SHL OR SWAP1 SSTORE TIMESTAMP PUSH1 0x8 DUP3 ADD DUP2 SWAP1 SSTORE SWAP1 SWAP9 SWAP1 PUSH2 0x16B0 JUMP JUMPDEST PUSH1 0x9 DUP9 ADD SSTORE PUSH1 0xA DUP8 ADD DUP1 SLOAD PUSH8 0xFFFFFFFFFFFFFFFF NOT AND SWAP1 SSTORE PUSH2 0x16B0 JUMP JUMPDEST PUSH1 0x1 SHR SWAP4 PUSH2 0x132E CALLER PUSH1 0xB DUP4 ADD PUSH2 0x16E6 JUMP JUMPDEST PUSH1 0x1 DUP1 PUSH1 0xA0 SHL SUB CALLER AND PUSH0 MSTORE ADD PUSH1 0x20 MSTORE DUP3 PUSH1 0x40 PUSH0 KECCAK256 SSTORE PUSH1 0x40 MLOAD SWAP1 DUP2 MSTORE DUP2 PUSH32 0x7DFB67E9FF596FCA4DA65C7EEDB128CD1AAC553AF54B3C0CB733625A2480D8BD PUSH1 0x20 CALLER SWAP4 LOG3 PUSH1 0x40 MLOAD SWAP2 DUP3 MSTORE PUSH32 0x3DFBE1FCB4E2D61F3B4A0C93D8F814C92250618B3387F396CC9FC9FAFE2C203 PUSH1 0x20 CALLER SWAP4 LOG3 STOP JUMPDEST PUSH4 0x4E487B71 PUSH1 0xE0 SHL PUSH0 MSTORE PUSH1 0x41 PUSH1 0x4 MSTORE PUSH1 0x24 PUSH0 REVERT JUMPDEST PUSH1 0x64 PUSH1 0x40 MLOAD PUSH3 0x461BCD PUSH1 0xE5 SHL DUP2 MSTORE PUSH1 0x20 PUSH1 0x4 DUP3 ADD MSTORE PUSH1 0x20 PUSH1 0x24 DUP3 ADD MSTORE PUSH32 0x47616D65206D757374206C617374206174206C656173742031206D696E757465 PUSH1 0x44 DUP3 ADD MSTORE REVERT JUMPDEST PUSH1 0x40 MLOAD PUSH3 0x461BCD PUSH1 0xE5 SHL DUP2 MSTORE PUSH1 0x20 PUSH1 0x4 DUP3 ADD MSTORE PUSH1 0x13 PUSH1 0x24 DUP3 ADD MSTORE PUSH19 0x496E76616C69642067756573732072616E6765 PUSH1 0x68 SHL PUSH1 0x44 DUP3 ADD MSTORE PUSH1 0x64 SWAP1 REVERT JUMPDEST PUSH1 0x40 MLOAD PUSH3 0x461BCD PUSH1 0xE5 SHL DUP2 MSTORE PUSH1 0x20 PUSH1 0x4 DUP3 ADD MSTORE PUSH1 0x21 PUSH1 0x24 DUP3 ADD MSTORE PUSH32 0x4D7573742070617920656E7472792066656520746F206372656174652067616D PUSH1 0x44 DUP3 ADD MSTORE PUSH1 0x65 PUSH1 0xF8 SHL PUSH1 0x64 DUP3 ADD MSTORE PUSH1 0x84 SWAP1 REVERT JUMPDEST CALLVALUE PUSH2 0x10FE JUMPI PUSH1 0x20 CALLDATASIZE PUSH1 0x3 NOT ADD SLT PUSH2 0x10FE JUMPI PUSH1 0xC0 PUSH2 0x14A6 PUSH1 0x4 CALLDATALOAD PUSH2 0x144 PUSH1 0x3 SLOAD DUP3 LT PUSH2 0x1631 JUMP JUMPDEST POP PUSH1 0xFF PUSH1 0x4 DUP3 ADD SLOAD SWAP2 PUSH1 0x5 DUP2 ADD SLOAD SWAP1 PUSH1 0x7 PUSH1 0x6 DUP3 ADD SLOAD SWAP2 ADD SLOAD SWAP2 PUSH1 0x40 MLOAD SWAP5 DUP6 MSTORE PUSH1 0x20 DUP6 ADD MSTORE PUSH1 0x40 DUP5 ADD MSTORE PUSH1 0x1 DUP1 PUSH1 0xA0 SHL SUB DUP2 AND PUSH1 0x60 DUP5 ADD MSTORE DUP2 DUP2 PUSH1 0xA0 SHR AND ISZERO ISZERO PUSH1 0x80 DUP5 ADD MSTORE PUSH1 0xA8 SHR AND ISZERO ISZERO PUSH1 0xA0 DUP3 ADD MSTORE RETURN JUMPDEST CALLVALUE PUSH2 0x10FE JUMPI PUSH1 0x20 CALLDATASIZE PUSH1 0x3 NOT ADD SLT PUSH2 0x10FE JUMPI PUSH1 0xB PUSH2 0x151E PUSH1 0x4 CALLDATALOAD PUSH2 0x144 PUSH1 0x3 SLOAD DUP3 LT PUSH2 0x1631 JUMP JUMPDEST POP ADD PUSH1 0x40 MLOAD DUP1 PUSH1 0x20 DUP4 SLOAD SWAP2 DUP3 DUP2 MSTORE ADD SWAP1 DUP2 SWAP4 PUSH0 MSTORE PUSH1 0x20 PUSH0 KECCAK256 SWAP1 PUSH0 JUMPDEST DUP2 DUP2 LT PUSH2 0x159A JUMPI POP POP POP DUP2 PUSH2 0x154F SWAP2 SUB DUP3 PUSH2 0x168F JUMP JUMPDEST PUSH1 0x40 MLOAD SWAP2 DUP3 SWAP2 PUSH1 0x20 DUP4 ADD SWAP1 PUSH1 0x20 DUP5 MSTORE MLOAD DUP1 SWAP2 MSTORE PUSH1 0x40 DUP4 ADD SWAP2 SWAP1 PUSH0 JUMPDEST DUP2 DUP2 LT PUSH2 0x1578 JUMPI POP POP POP SUB SWAP1 RETURN JUMPDEST DUP3 MLOAD PUSH1 0x1 PUSH1 0x1 PUSH1 0xA0 SHL SUB AND DUP5 MSTORE DUP6 SWAP5 POP PUSH1 0x20 SWAP4 DUP5 ADD SWAP4 SWAP1 SWAP3 ADD SWAP2 PUSH1 0x1 ADD PUSH2 0x156A JUMP JUMPDEST DUP3 SLOAD PUSH1 0x1 PUSH1 0x1 PUSH1 0xA0 SHL SUB AND DUP5 MSTORE PUSH1 0x20 SWAP1 SWAP4 ADD SWAP3 PUSH1 0x1 SWAP3 DUP4 ADD SWAP3 ADD PUSH2 0x1539 JUMP JUMPDEST PUSH1 0x4 CALLDATALOAD SWAP1 PUSH1 0x1 PUSH1 0x1 PUSH1 0x40 SHL SUB DUP3 AND DUP3 SUB PUSH2 0x10FE JUMPI JUMP JUMPDEST PUSH1 0x24 CALLDATALOAD SWAP1 PUSH1 0x1 PUSH1 0x1 PUSH1 0xA0 SHL SUB DUP3 AND DUP3 SUB PUSH2 0x10FE JUMPI JUMP JUMPDEST PUSH1 0x3 SLOAD DUP2 LT ISZERO PUSH2 0x1601 JUMPI PUSH1 0x3 PUSH0 MSTORE PUSH1 0xD PUSH1 0x20 PUSH0 KECCAK256 SWAP2 MUL ADD SWAP1 PUSH0 SWAP1 JUMP JUMPDEST PUSH4 0x4E487B71 PUSH1 0xE0 SHL PUSH0 MSTORE PUSH1 0x32 PUSH1 0x4 MSTORE PUSH1 0x24 PUSH0 REVERT JUMPDEST PUSH1 0x2 SLOAD DUP2 LT ISZERO PUSH2 0x1601 JUMPI PUSH1 0x2 PUSH0 MSTORE PUSH1 0x5 PUSH1 0x20 PUSH0 KECCAK256 SWAP2 MUL ADD SWAP1 PUSH0 SWAP1 JUMP JUMPDEST ISZERO PUSH2 0x1638 JUMPI JUMP JUMPDEST PUSH1 0x40 MLOAD PUSH3 0x461BCD PUSH1 0xE5 SHL DUP2 MSTORE PUSH1 0x20 PUSH1 0x4 DUP3 ADD MSTORE PUSH1 0x13 PUSH1 0x24 DUP3 ADD MSTORE PUSH19 0x11D85B5948191BD95CC81B9BDD08195E1A5CDD PUSH1 0x6A SHL PUSH1 0x44 DUP3 ADD MSTORE PUSH1 0x64 SWAP1 REVERT JUMPDEST PUSH2 0x100 DUP2 ADD SWAP1 DUP2 LT PUSH1 0x1 PUSH1 0x1 PUSH1 0x40 SHL SUB DUP3 GT OR PUSH2 0x139E JUMPI PUSH1 0x40 MSTORE JUMP JUMPDEST SWAP1 PUSH1 0x1F DUP1 NOT SWAP2 ADD AND DUP2 ADD SWAP1 DUP2 LT PUSH1 0x1 PUSH1 0x1 PUSH1 0x40 SHL SUB DUP3 GT OR PUSH2 0x139E JUMPI PUSH1 0x40 MSTORE JUMP JUMPDEST SWAP2 SWAP1 DUP3 ADD DUP1 SWAP3 GT PUSH2 0x16BD JUMPI JUMP JUMPDEST PUSH4 0x4E487B71 PUSH1 0xE0 SHL PUSH0 MSTORE PUSH1 0x11 PUSH1 0x4 MSTORE PUSH1 0x24 PUSH0 REVERT JUMPDEST DUP1 SLOAD DUP3 LT ISZERO PUSH2 0x1601 JUMPI PUSH0 MSTORE PUSH1 0x20 PUSH0 KECCAK256 ADD SWAP1 PUSH0 SWAP1 JUMP JUMPDEST DUP1 SLOAD PUSH1 0x1 PUSH1 0x40 SHL DUP2 LT ISZERO PUSH2 0x139E JUMPI PUSH2 0x1703 SWAP2 PUSH1 0x1 DUP3 ADD DUP2 SSTORE PUSH2 0x16D1 JUMP JUMPDEST DUP2 SLOAD PUSH1 0x1 PUSH1 0x1 PUSH1 0xA0 SHL SUB SWAP4 DUP5 AND PUSH1 0x3 SWAP3 SWAP1 SWAP3 SHL SWAP2 DUP3 SHL SWAP4 SWAP1 SWAP2 SHL NOT AND SWAP2 SWAP1 SWAP2 OR SWAP1 SSTORE JUMP JUMPDEST SWAP2 DUP1 PUSH1 0x20 DUP5 ADD PUSH1 0x20 DUP6 MSTORE MSTORE PUSH1 0x40 DUP4 ADD SWAP1 PUSH1 0x40 DUP2 PUSH1 0x5 SHL DUP6 ADD ADD SWAP4 DUP4 PUSH0 SWAP2 PUSH1 0x1E NOT DUP3 CALLDATASIZE SUB ADD SWAP1 JUMPDEST DUP5 DUP5 LT PUSH2 0x175E JUMPI POP POP POP POP POP POP POP SWAP1 JUMP JUMPDEST SWAP1 SWAP2 SWAP3 SWAP4 SWAP5 SWAP6 SWAP7 PUSH1 0x3F NOT DUP3 DUP3 SUB ADD DUP8 MSTORE DUP8 CALLDATALOAD DUP4 DUP2 SLT ISZERO PUSH2 0x10FE JUMPI DUP5 ADD SWAP1 PUSH1 0x20 DUP3 CALLDATALOAD SWAP3 ADD SWAP2 PUSH1 0x1 PUSH1 0x1 PUSH1 0x40 SHL SUB DUP2 GT PUSH2 0x10FE JUMPI DUP1 CALLDATASIZE SUB DUP4 SGT PUSH2 0x10FE JUMPI PUSH1 0x20 DUP3 DUP3 DUP1 PUSH1 0x1 SWAP7 DUP5 SWAP7 SWAP6 DUP6 SWAP7 MSTORE DUP5 DUP5 ADD CALLDATACOPY PUSH0 DUP3 DUP3 ADD DUP5 ADD MSTORE PUSH1 0x1F ADD PUSH1 0x1F NOT AND ADD ADD SWAP10 ADD SWAP8 ADD SWAP6 SWAP5 ADD SWAP3 SWAP2 SWAP1 PUSH2 0x174D JUMP JUMPDEST PUSH1 0x7 SWAP2 DUP3 SIGNEXTEND SWAP2 SIGNEXTEND SUB SWAP1 PUSH8 0x7FFFFFFFFFFFFFFF NOT DUP3 SLT PUSH8 0x7FFFFFFFFFFFFFFF DUP4 SGT OR PUSH2 0x16BD JUMPI JUMP JUMPDEST ISZERO PUSH2 0x17F8 JUMPI JUMP JUMPDEST PUSH1 0x40 MLOAD PUSH3 0x461BCD PUSH1 0xE5 SHL DUP2 MSTORE PUSH1 0x20 PUSH1 0x4 DUP3 ADD MSTORE PUSH1 0x12 PUSH1 0x24 DUP3 ADD MSTORE PUSH18 0x47616D65206973206E6F7420616374697665 PUSH1 0x70 SHL PUSH1 0x44 DUP3 ADD MSTORE PUSH1 0x64 SWAP1 REVERT JUMPDEST PUSH1 0x7 DUP2 SWAP1 SIGNEXTEND PUSH0 DUP2 SLT PUSH2 0x1842 JUMPI POP SWAP1 JUMP JUMPDEST SWAP1 POP PUSH8 0x7FFFFFFFFFFFFFFF NOT DUP2 EQ PUSH2 0x16BD JUMPI PUSH0 SUB SWAP1 JUMP JUMPDEST SWAP2 SWAP1 DUP3 SUB SWAP2 DUP3 GT PUSH2 0x16BD JUMPI JUMP JUMPDEST PUSH2 0x186F DUP2 PUSH2 0x15E5 JUMP JUMPDEST POP SWAP2 PUSH1 0x7 DUP4 ADD SWAP1 PUSH1 0xFF DUP3 SLOAD PUSH1 0xA8 SHR AND PUSH2 0x19DE JUMPI PUSH1 0x5 DUP5 ADD SLOAD PUSH2 0x1896 PUSH1 0x4 DUP7 ADD SLOAD DUP1 SWAP3 PUSH2 0x1859 JUMP JUMPDEST PUSH1 0x1 DUP2 ADD DUP1 SWAP2 GT PUSH2 0x16BD JUMPI DUP1 ISZERO PUSH2 0x19CA JUMPI PUSH2 0x18B2 SWAP3 MOD SWAP1 PUSH2 0x16B0 JUMP JUMPDEST PUSH1 0x6 DUP5 ADD SWAP2 DUP2 DUP4 SSTORE PUSH0 SWAP2 PUSH0 NOT PUSH0 SWAP1 PUSH1 0xB DUP9 ADD SWAP3 DUP4 SLOAD SWAP4 PUSH1 0xC DUP11 ADD SWAP4 JUMPDEST DUP6 DUP2 LT PUSH2 0x1960 JUMPI POP POP DUP5 SLOAD PUSH1 0x1 PUSH1 0x1 PUSH1 0xB0 SHL SUB NOT AND PUSH1 0x1 PUSH1 0x1 PUSH1 0xA0 SHL SUB SWAP7 SWAP1 SWAP7 AND SWAP6 DUP7 OR PUSH1 0x1 PUSH1 0xA8 SHL OR SWAP1 SWAP5 SSTORE POP SWAP3 SWAP6 SWAP3 POP DUP6 SWAP2 POP PUSH2 0x1939 SWAP1 POP JUMPI JUMPDEST POP PUSH1 0x20 PUSH32 0x5DA8C4DB77B35635CE26B87FBCC7380FF80950DC26B8F0A41E2309D4ADB72A1 SWAP2 SLOAD PUSH1 0x40 MLOAD SWAP1 DUP2 MSTORE LOG3 JUMP JUMPDEST PUSH0 DUP1 DUP1 PUSH1 0x3 DUP2 SWAP5 ADD SLOAD DUP8 DUP3 DUP3 ISZERO PUSH2 0x1957 JUMPI JUMPDEST CALL ISZERO PUSH2 0x10F3 JUMPI PUSH0 PUSH2 0x190A JUMP JUMPDEST POP PUSH2 0x8FC PUSH2 0x194B JUMP JUMPDEST PUSH2 0x196A DUP2 DUP4 PUSH2 0x16D1 JUMP JUMPDEST SWAP1 SLOAD PUSH1 0x3 SWAP2 SWAP1 SWAP2 SHL SHR PUSH1 0x1 PUSH1 0x1 PUSH1 0xA0 SHL SUB AND PUSH0 DUP2 DUP2 MSTORE PUSH1 0x20 DUP8 SWAP1 MSTORE PUSH1 0x40 SWAP1 KECCAK256 SLOAD DUP5 DUP1 DUP3 GT ISZERO PUSH2 0x19BB JUMPI PUSH2 0x199C SWAP2 PUSH2 0x1859 JUMP JUMPDEST DUP6 DUP2 LT PUSH2 0x19AE JUMPI JUMPDEST POP POP PUSH1 0x1 ADD PUSH2 0x18CE JUMP JUMPDEST SWAP1 SWAP9 POP SWAP4 POP PUSH1 0x1 PUSH0 PUSH2 0x19A4 JUMP JUMPDEST SWAP1 PUSH2 0x19C5 SWAP2 PUSH2 0x1859 JUMP JUMPDEST PUSH2 0x199C JUMP JUMPDEST PUSH4 0x4E487B71 PUSH1 0xE0 SHL PUSH0 MSTORE PUSH1 0x12 PUSH1 0x4 MSTORE PUSH1 0x24 PUSH0 REVERT JUMPDEST PUSH1 0x40 MLOAD PUSH3 0x461BCD PUSH1 0xE5 SHL DUP2 MSTORE PUSH1 0x20 PUSH1 0x4 DUP3 ADD MSTORE PUSH1 0x14 PUSH1 0x24 DUP3 ADD MSTORE PUSH20 0x11D85B5948185B1C9958591E481CD95D1D1B1959 PUSH1 0x62 SHL PUSH1 0x44 DUP3 ADD MSTORE PUSH1 0x64 SWAP1 REVERT INVALID LOG2 PUSH5 0x6970667358 0x22 SLT KECCAK256 DUP7 0xD3 0xF8 CALLCODE CALLCODE ORIGIN BLOBHASH SWAP5 SAR 0xDC PUSH11 0xD3F5F9498691F72DFBC43 LOG3 SIGNEXTEND 0x2B 0x2E 0xF8 0x2E EQ JUMP 0xB3 BASEFEE PUSH5 0x736F6C6343 STOP ADDMOD SHR STOP CALLER "},"methodIdentifiers":{"_entropyCallback(uint64,address,bytes32)":"52a5f1f8","battles(uint256)":"606d2e96","createBattle(int64)":"d6997b4b","createLuckyGame(uint256,uint256,uint256,uint256)":"22fdd534","entropy()":"47ce07cc","getAllBattles()":"5c93fc3d","getGamePlayers(uint256)":"15a40f49","getLuckyGameBasic(uint256)":"9455ba57","getLuckyGameCount()":"404f4e62","getLuckyGameDetails(uint256)":"17800be7","getLuckyGameTiming(uint256)":"4e858795","getPlayerGuess(uint256,address)":"f4dcdc8e","joinBattle(uint256,int64)":"f25b9238","joinLuckyGame(uint256,uint256)":"7dd3dffc","luckyGames(uint256)":"5ad18cf3","pyth()":"f98d06f0","requestRandomNumber(uint256)":"b1eb96c9","resolveBattle(uint256,bytes[])":"4e5d29d2","sequenceToGameId(uint64)":"5ef3bc0b"}}}}}