{
  "_format": "hh3-artifact-1",
  "contractName": "ArenaVault",
  "sourceName": "contracts/ArenaVault.sol",
  "abi": [
    {
      "inputs": [],
      "stateMutability": "nonpayable",
      "type": "constructor"
    },
    {
      "anonymous": false,
      "inputs": [
        {
          "indexed": true,
          "internalType": "address",
          "name": "user",
          "type": "address"
        },
        {
          "indexed": false,
          "internalType": "uint256",
          "name": "amount",
          "type": "uint256"
        }
      ],
      "name": "Deposited",
      "type": "event"
    },
    {
      "anonymous": false,
      "inputs": [
        {
          "indexed": true,
          "internalType": "address",
          "name": "user",
          "type": "address"
        },
        {
          "indexed": false,
          "internalType": "uint256",
          "name": "amount",
          "type": "uint256"
        }
      ],
      "name": "Withdrawn",
      "type": "event"
    },
    {
      "inputs": [
        {
          "internalType": "address",
          "name": "",
          "type": "address"
        }
      ],
      "name": "balances",
      "outputs": [
        {
          "internalType": "uint256",
          "name": "",
          "type": "uint256"
        }
      ],
      "stateMutability": "view",
      "type": "function"
    },
    {
      "inputs": [
        {
          "internalType": "uint256",
          "name": "",
          "type": "uint256"
        }
      ],
      "name": "battles",
      "outputs": [
        {
          "internalType": "address",
          "name": "player1",
          "type": "address"
        },
        {
          "internalType": "address",
          "name": "player2",
          "type": "address"
        },
        {
          "internalType": "uint256",
          "name": "stake",
          "type": "uint256"
        },
        {
          "internalType": "address",
          "name": "winner",
          "type": "address"
        },
        {
          "internalType": "enum ArenaVault.BattleStatus",
          "name": "status",
          "type": "uint8"
        }
      ],
      "stateMutability": "view",
      "type": "function"
    },
    {
      "inputs": [
        {
          "internalType": "uint256",
          "name": "stake",
          "type": "uint256"
        }
      ],
      "name": "createBattle",
      "outputs": [],
      "stateMutability": "nonpayable",
      "type": "function"
    },
    {
      "inputs": [],
      "name": "deposit",
      "outputs": [],
      "stateMutability": "payable",
      "type": "function"
    },
    {
      "inputs": [],
      "name": "getAllBattles",
      "outputs": [
        {
          "components": [
            {
              "internalType": "address",
              "name": "player1",
              "type": "address"
            },
            {
              "internalType": "address",
              "name": "player2",
              "type": "address"
            },
            {
              "internalType": "uint256",
              "name": "stake",
              "type": "uint256"
            },
            {
              "internalType": "address",
              "name": "winner",
              "type": "address"
            },
            {
              "internalType": "enum ArenaVault.BattleStatus",
              "name": "status",
              "type": "uint8"
            }
          ],
          "internalType": "struct ArenaVault.Battle[]",
          "name": "",
          "type": "tuple[]"
        }
      ],
      "stateMutability": "view",
      "type": "function"
    },
    {
      "inputs": [
        {
          "internalType": "address",
          "name": "user",
          "type": "address"
        }
      ],
      "name": "getBalance",
      "outputs": [
        {
          "internalType": "uint256",
          "name": "",
          "type": "uint256"
        }
      ],
      "stateMutability": "view",
      "type": "function"
    },
    {
      "inputs": [
        {
          "internalType": "uint256",
          "name": "battleId",
          "type": "uint256"
        }
      ],
      "name": "getBattle",
      "outputs": [
        {
          "components": [
            {
              "internalType": "address",
              "name": "player1",
              "type": "address"
            },
            {
              "internalType": "address",
              "name": "player2",
              "type": "address"
            },
            {
              "internalType": "uint256",
              "name": "stake",
              "type": "uint256"
            },
            {
              "internalType": "address",
              "name": "winner",
              "type": "address"
            },
            {
              "internalType": "enum ArenaVault.BattleStatus",
              "name": "status",
              "type": "uint8"
            }
          ],
          "internalType": "struct ArenaVault.Battle",
          "name": "",
          "type": "tuple"
        }
      ],
      "stateMutability": "view",
      "type": "function"
    },
    {
      "inputs": [],
      "name": "getOpenBattles",
      "outputs": [
        {
          "components": [
            {
              "internalType": "address",
              "name": "player1",
              "type": "address"
            },
            {
              "internalType": "address",
              "name": "player2",
              "type": "address"
            },
            {
              "internalType": "uint256",
              "name": "stake",
              "type": "uint256"
            },
            {
              "internalType": "address",
              "name": "winner",
              "type": "address"
            },
            {
              "internalType": "enum ArenaVault.BattleStatus",
              "name": "status",
              "type": "uint8"
            }
          ],
          "internalType": "struct ArenaVault.Battle[]",
          "name": "",
          "type": "tuple[]"
        }
      ],
      "stateMutability": "view",
      "type": "function"
    },
    {
      "inputs": [
        {
          "internalType": "uint256",
          "name": "battleId",
          "type": "uint256"
        }
      ],
      "name": "joinBattle",
      "outputs": [],
      "stateMutability": "nonpayable",
      "type": "function"
    },
    {
      "inputs": [],
      "name": "owner",
      "outputs": [
        {
          "internalType": "address",
          "name": "",
          "type": "address"
        }
      ],
      "stateMutability": "view",
      "type": "function"
    },
    {
      "inputs": [
        {
          "internalType": "address",
          "name": "",
          "type": "address"
        },
        {
          "internalType": "uint256",
          "name": "",
          "type": "uint256"
        }
      ],
      "name": "playerBattles",
      "outputs": [
        {
          "internalType": "uint256",
          "name": "",
          "type": "uint256"
        }
      ],
      "stateMutability": "view",
      "type": "function"
    },
    {
      "inputs": [
        {
          "internalType": "uint256",
          "name": "battleId",
          "type": "uint256"
        }
      ],
      "name": "settleBattle",
      "outputs": [],
      "stateMutability": "nonpayable",
      "type": "function"
    },
    {
      "inputs": [
        {
          "internalType": "uint256",
          "name": "amount",
          "type": "uint256"
        }
      ],
      "name": "withdraw",
      "outputs": [],
      "stateMutability": "nonpayable",
      "type": "function"
    }
  ],
  "bytecode": "0x6080604052348015600e575f5ffd5b50335f5f6101000a81548173ffffffffffffffffffffffffffffffffffffffff021916908373ffffffffffffffffffffffffffffffffffffffff160217905550611ec48061005b5f395ff3fe6080604052600436106100c1575f3560e01c8063641ef4cd1161007e5780638da5cb5b116100585780638da5cb5b1461028557806394d44f12146102af578063d0e30db0146102d7578063f8b2cb4f146102e1576100c1565b8063641ef4cd146101e35780636dd0ce7a1461021f578063719d65db1461025b576100c1565b806327e235e3146100c55780632e1a7d4d1461010157806348eaa2f0146101295780634a042f0d146101515780635c93fc3d14610179578063606d2e96146101a3575b5f5ffd5b3480156100d0575f5ffd5b506100eb60048036038101906100e691906115e6565b61031d565b6040516100f89190611629565b60405180910390f35b34801561010c575f5ffd5b506101276004803603810190610122919061166c565b610332565b005b348015610134575f5ffd5b5061014f600480360381019061014a919061166c565b61049a565b005b34801561015c575f5ffd5b506101776004803603810190610172919061166c565b6106ea565b005b348015610184575f5ffd5b5061018d6109c3565b60405161019a9190611836565b60405180910390f35b3480156101ae575f5ffd5b506101c960048036038101906101c4919061166c565b610b62565b6040516101da959493929190611874565b60405180910390f35b3480156101ee575f5ffd5b50610209600480360381019061020491906118c5565b610c0d565b6040516102169190611629565b60405180910390f35b34801561022a575f5ffd5b506102456004803603810190610240919061166c565b610c38565b6040516102529190611969565b60405180910390f35b348015610266575f5ffd5b5061026f610db5565b60405161027c9190611836565b60405180910390f35b348015610290575f5ffd5b506102996110bf565b6040516102a69190611982565b60405180910390f35b3480156102ba575f5ffd5b506102d560048036038101906102d0919061166c565b6110e3565b005b6102df6113df565b005b3480156102ec575f5ffd5b50610307600480360381019061030291906115e6565b6114c4565b6040516103149190611629565b60405180910390f35b6001602052805f5260405f205f915090505481565b8060015f3373ffffffffffffffffffffffffffffffffffffffff1673ffffffffffffffffffffffffffffffffffffffff1681526020019081526020015f205410156103b2576040517f08c379a00000000000000000000000000000000000000000000000000000000081526004016103a9906119f5565b60405180910390fd5b8060015f3373ffffffffffffffffffffffffffffffffffffffff1673ffffffffffffffffffffffffffffffffffffffff1681526020019081526020015f205f8282546103fe9190611a40565b925050819055503373ffffffffffffffffffffffffffffffffffffffff166108fc8290811502906040515f60405180830381858888f19350505050158015610448573d5f5f3e3d5ffd5b503373ffffffffffffffffffffffffffffffffffffffff167f7084f5476618d8e60b11ef0d7d3f06914655adb8793e28ff7f018d4c76d505d58260405161048f9190611629565b60405180910390a250565b5f600282815481106104af576104ae611a73565b5b905f5260205f2090600402019050600160028111156104d1576104d06116de565b5b8160030160149054906101000a900460ff1660028111156104f5576104f46116de565b5b14610535576040517f08c379a000000000000000000000000000000000000000000000000000000000815260040161052c90611aea565b60405180910390fd5b5f42825f015f9054906101000a900473ffffffffffffffffffffffffffffffffffffffff16836001015f9054906101000a900473ffffffffffffffffffffffffffffffffffffffff1660405160200161059093929190611b6d565b604051602081830303815290604052805190602001205f1c90505f5f6002836105b99190611bd6565b146105e757826001015f9054906101000a900473ffffffffffffffffffffffffffffffffffffffff1661060b565b825f015f9054906101000a900473ffffffffffffffffffffffffffffffffffffffff165b90505f6002846002015461061f9190611c06565b90508060015f8473ffffffffffffffffffffffffffffffffffffffff1673ffffffffffffffffffffffffffffffffffffffff1681526020019081526020015f205f82825461066d9190611c47565b9250508190555081846003015f6101000a81548173ffffffffffffffffffffffffffffffffffffffff021916908373ffffffffffffffffffffffffffffffffffffffff16021790555060028460030160146101000a81548160ff021916908360028111156106de576106dd6116de565b5b02179055505050505050565b5f600282815481106106ff576106fe611a73565b5b905f5260205f20906004020190505f60028111156107205761071f6116de565b5b8160030160149054906101000a900460ff166002811115610744576107436116de565b5b14610784576040517f08c379a000000000000000000000000000000000000000000000000000000000815260040161077b90611cc4565b60405180910390fd5b3373ffffffffffffffffffffffffffffffffffffffff16815f015f9054906101000a900473ffffffffffffffffffffffffffffffffffffffff1673ffffffffffffffffffffffffffffffffffffffff1603610814576040517f08c379a000000000000000000000000000000000000000000000000000000000815260040161080b90611d2c565b60405180910390fd5b806002015460015f3373ffffffffffffffffffffffffffffffffffffffff1673ffffffffffffffffffffffffffffffffffffffff1681526020019081526020015f20541015610898576040517f08c379a000000000000000000000000000000000000000000000000000000000815260040161088f90611d94565b60405180910390fd5b806002015460015f3373ffffffffffffffffffffffffffffffffffffffff1673ffffffffffffffffffffffffffffffffffffffff1681526020019081526020015f205f8282546108e89190611a40565b9250508190555033816001015f6101000a81548173ffffffffffffffffffffffffffffffffffffffff021916908373ffffffffffffffffffffffffffffffffffffffff16021790555060018160030160146101000a81548160ff02191690836002811115610959576109586116de565b5b021790555060035f3373ffffffffffffffffffffffffffffffffffffffff1673ffffffffffffffffffffffffffffffffffffffff1681526020019081526020015f2082908060018154018082558091505060019003905f5260205f20015f90919091909150555050565b60606002805480602002602001604051908101604052809291908181526020015f905b82821015610b59578382905f5260205f2090600402016040518060a00160405290815f82015f9054906101000a900473ffffffffffffffffffffffffffffffffffffffff1673ffffffffffffffffffffffffffffffffffffffff1673ffffffffffffffffffffffffffffffffffffffff168152602001600182015f9054906101000a900473ffffffffffffffffffffffffffffffffffffffff1673ffffffffffffffffffffffffffffffffffffffff1673ffffffffffffffffffffffffffffffffffffffff16815260200160028201548152602001600382015f9054906101000a900473ffffffffffffffffffffffffffffffffffffffff1673ffffffffffffffffffffffffffffffffffffffff1673ffffffffffffffffffffffffffffffffffffffff1681526020016003820160149054906101000a900460ff166002811115610b3457610b336116de565b5b6002811115610b4657610b456116de565b5b81525050815260200190600101906109e6565b50505050905090565b60028181548110610b71575f80fd5b905f5260205f2090600402015f91509050805f015f9054906101000a900473ffffffffffffffffffffffffffffffffffffffff1690806001015f9054906101000a900473ffffffffffffffffffffffffffffffffffffffff1690806002015490806003015f9054906101000a900473ffffffffffffffffffffffffffffffffffffffff16908060030160149054906101000a900460ff16905085565b6003602052815f5260405f208181548110610c26575f80fd5b905f5260205f20015f91509150505481565b610c4061150a565b60028281548110610c5457610c53611a73565b5b905f5260205f2090600402016040518060a00160405290815f82015f9054906101000a900473ffffffffffffffffffffffffffffffffffffffff1673ffffffffffffffffffffffffffffffffffffffff1673ffffffffffffffffffffffffffffffffffffffff168152602001600182015f9054906101000a900473ffffffffffffffffffffffffffffffffffffffff1673ffffffffffffffffffffffffffffffffffffffff1673ffffffffffffffffffffffffffffffffffffffff16815260200160028201548152602001600382015f9054906101000a900473ffffffffffffffffffffffffffffffffffffffff1673ffffffffffffffffffffffffffffffffffffffff1673ffffffffffffffffffffffffffffffffffffffff1681526020016003820160149054906101000a900460ff166002811115610d9857610d976116de565b5b6002811115610daa57610da96116de565b5b815250509050919050565b60605f5f90505f5f90505b600280549050811015610e44575f6002811115610de057610ddf6116de565b5b60028281548110610df457610df3611a73565b5b905f5260205f20906004020160030160149054906101000a900460ff166002811115610e2357610e226116de565b5b03610e37578180610e3390611db2565b9250505b8080600101915050610dc0565b505f8167ffffffffffffffff811115610e6057610e5f611df9565b5b604051908082528060200260200182016040528015610e9957816020015b610e8661150a565b815260200190600190039081610e7e5790505b5090505f5f90505f5f90505b6002805490508110156110b5575f6002811115610ec557610ec46116de565b5b60028281548110610ed957610ed8611a73565b5b905f5260205f20906004020160030160149054906101000a900460ff166002811115610f0857610f076116de565b5b036110a85760028181548110610f2157610f20611a73565b5b905f5260205f2090600402016040518060a00160405290815f82015f9054906101000a900473ffffffffffffffffffffffffffffffffffffffff1673ffffffffffffffffffffffffffffffffffffffff1673ffffffffffffffffffffffffffffffffffffffff168152602001600182015f9054906101000a900473ffffffffffffffffffffffffffffffffffffffff1673ffffffffffffffffffffffffffffffffffffffff1673ffffffffffffffffffffffffffffffffffffffff16815260200160028201548152602001600382015f9054906101000a900473ffffffffffffffffffffffffffffffffffffffff1673ffffffffffffffffffffffffffffffffffffffff1673ffffffffffffffffffffffffffffffffffffffff1681526020016003820160149054906101000a900460ff166002811115611065576110646116de565b5b6002811115611077576110766116de565b5b8152505083838151811061108e5761108d611a73565b5b602002602001018190525081806110a490611db2565b9250505b8080600101915050610ea5565b5081935050505090565b5f5f9054906101000a900473ffffffffffffffffffffffffffffffffffffffff1681565b8060015f3373ffffffffffffffffffffffffffffffffffffffff1673ffffffffffffffffffffffffffffffffffffffff1681526020019081526020015f20541015611163576040517f08c379a000000000000000000000000000000000000000000000000000000000815260040161115a90611d94565b60405180910390fd5b8060015f3373ffffffffffffffffffffffffffffffffffffffff1673ffffffffffffffffffffffffffffffffffffffff1681526020019081526020015f205f8282546111af9190611a40565b925050819055505f6040518060a001604052803373ffffffffffffffffffffffffffffffffffffffff1681526020015f73ffffffffffffffffffffffffffffffffffffffff1681526020018381526020015f73ffffffffffffffffffffffffffffffffffffffff1681526020015f600281111561122f5761122e6116de565b5b8152509050600281908060018154018082558091505060019003905f5260205f2090600402015f909190919091505f820151815f015f6101000a81548173ffffffffffffffffffffffffffffffffffffffff021916908373ffffffffffffffffffffffffffffffffffffffff1602179055506020820151816001015f6101000a81548173ffffffffffffffffffffffffffffffffffffffff021916908373ffffffffffffffffffffffffffffffffffffffff160217905550604082015181600201556060820151816003015f6101000a81548173ffffffffffffffffffffffffffffffffffffffff021916908373ffffffffffffffffffffffffffffffffffffffff16021790555060808201518160030160146101000a81548160ff02191690836002811115611362576113616116de565b5b0217905550505060035f3373ffffffffffffffffffffffffffffffffffffffff1673ffffffffffffffffffffffffffffffffffffffff1681526020019081526020015f2060016002805490506113b89190611a40565b908060018154018082558091505060019003905f5260205f20015f90919091909150555050565b5f3411611421576040517f08c379a000000000000000000000000000000000000000000000000000000000815260040161141890611e70565b60405180910390fd5b3460015f3373ffffffffffffffffffffffffffffffffffffffff1673ffffffffffffffffffffffffffffffffffffffff1681526020019081526020015f205f82825461146d9190611c47565b925050819055503373ffffffffffffffffffffffffffffffffffffffff167f2da466a7b24304f47e87fa2e1e5a81b9831ce54fec19055ce277ca2f39ba42c4346040516114ba9190611629565b60405180910390a2565b5f60015f8373ffffffffffffffffffffffffffffffffffffffff1673ffffffffffffffffffffffffffffffffffffffff1681526020019081526020015f20549050919050565b6040518060a001604052805f73ffffffffffffffffffffffffffffffffffffffff1681526020015f73ffffffffffffffffffffffffffffffffffffffff1681526020015f81526020015f73ffffffffffffffffffffffffffffffffffffffff1681526020015f6002811115611582576115816116de565b5b81525090565b5f5ffd5b5f73ffffffffffffffffffffffffffffffffffffffff82169050919050565b5f6115b58261158c565b9050919050565b6115c5816115ab565b81146115cf575f5ffd5b50565b5f813590506115e0816115bc565b92915050565b5f602082840312156115fb576115fa611588565b5b5f611608848285016115d2565b91505092915050565b5f819050919050565b61162381611611565b82525050565b5f60208201905061163c5f83018461161a565b92915050565b61164b81611611565b8114611655575f5ffd5b50565b5f8135905061166681611642565b92915050565b5f6020828403121561168157611680611588565b5b5f61168e84828501611658565b91505092915050565b5f81519050919050565b5f82825260208201905092915050565b5f819050602082019050919050565b6116c9816115ab565b82525050565b6116d881611611565b82525050565b7f4e487b71000000000000000000000000000000000000000000000000000000005f52602160045260245ffd5b6003811061171c5761171b6116de565b5b50565b5f81905061172c8261170b565b919050565b5f61173b8261171f565b9050919050565b61174b81611731565b82525050565b60a082015f8201516117655f8501826116c0565b50602082015161177860208501826116c0565b50604082015161178b60408501826116cf565b50606082015161179e60608501826116c0565b5060808201516117b16080850182611742565b50505050565b5f6117c28383611751565b60a08301905092915050565b5f602082019050919050565b5f6117e482611697565b6117ee81856116a1565b93506117f9836116b1565b805f5b8381101561182957815161181088826117b7565b975061181b836117ce565b9250506001810190506117fc565b5085935050505092915050565b5f6020820190508181035f83015261184e81846117da565b905092915050565b61185f816115ab565b82525050565b61186e81611731565b82525050565b5f60a0820190506118875f830188611856565b6118946020830187611856565b6118a1604083018661161a565b6118ae6060830185611856565b6118bb6080830184611865565b9695505050505050565b5f5f604083850312156118db576118da611588565b5b5f6118e8858286016115d2565b92505060206118f985828601611658565b9150509250929050565b60a082015f8201516119175f8501826116c0565b50602082015161192a60208501826116c0565b50604082015161193d60408501826116cf565b50606082015161195060608501826116c0565b5060808201516119636080850182611742565b50505050565b5f60a08201905061197c5f830184611903565b92915050565b5f6020820190506119955f830184611856565b92915050565b5f82825260208201905092915050565b7f496e73756666696369656e742062616c616e63650000000000000000000000005f82015250565b5f6119df60148361199b565b91506119ea826119ab565b602082019050919050565b5f6020820190508181035f830152611a0c816119d3565b9050919050565b7f4e487b71000000000000000000000000000000000000000000000000000000005f52601160045260245ffd5b5f611a4a82611611565b9150611a5583611611565b9250828203905081811115611a6d57611a6c611a13565b5b92915050565b7f4e487b71000000000000000000000000000000000000000000000000000000005f52603260045260245ffd5b7f426174746c65206e6f74206f6e676f696e6700000000000000000000000000005f82015250565b5f611ad460128361199b565b9150611adf82611aa0565b602082019050919050565b5f6020820190508181035f830152611b0181611ac8565b9050919050565b5f819050919050565b611b22611b1d82611611565b611b08565b82525050565b5f8160601b9050919050565b5f611b3e82611b28565b9050919050565b5f611b4f82611b34565b9050919050565b611b67611b62826115ab565b611b45565b82525050565b5f611b788286611b11565b602082019150611b888285611b56565b601482019150611b988284611b56565b601482019150819050949350505050565b7f4e487b71000000000000000000000000000000000000000000000000000000005f52601260045260245ffd5b5f611be082611611565b9150611beb83611611565b925082611bfb57611bfa611ba9565b5b828206905092915050565b5f611c1082611611565b9150611c1b83611611565b9250828202611c2981611611565b91508282048414831517611c4057611c3f611a13565b5b5092915050565b5f611c5182611611565b9150611c5c83611611565b9250828201905080821115611c7457611c73611a13565b5b92915050565b7f426174746c65206e6f74206f70656e00000000000000000000000000000000005f82015250565b5f611cae600f8361199b565b9150611cb982611c7a565b602082019050919050565b5f6020820190508181035f830152611cdb81611ca2565b9050919050565b7f43616e6e6f74206a6f696e206f776e20626174746c65000000000000000000005f82015250565b5f611d1660168361199b565b9150611d2182611ce2565b602082019050919050565b5f6020820190508181035f830152611d4381611d0a565b9050919050565b7f4e6f7420656e6f7567682062616c616e636500000000000000000000000000005f82015250565b5f611d7e60128361199b565b9150611d8982611d4a565b602082019050919050565b5f6020820190508181035f830152611dab81611d72565b9050919050565b5f611dbc82611611565b91507fffffffffffffffffffffffffffffffffffffffffffffffffffffffffffffffff8203611dee57611ded611a13565b5b600182019050919050565b7f4e487b71000000000000000000000000000000000000000000000000000000005f52604160045260245ffd5b7f4e6f204554482073656e740000000000000000000000000000000000000000005f82015250565b5f611e5a600b8361199b565b9150611e6582611e26565b602082019050919050565b5f6020820190508181035f830152611e8781611e4e565b905091905056fea2646970667358221220a0e55005f5eab2864697408cf76670f1396a103b2b17201bda0ca4b5de2cee5d64736f6c634300081c0033",
  "linkReferences": {},
  "deployedLinkReferences": {},
  "immutableReferences": {},
  "inputSourceName": "project/contracts/ArenaVault.sol",
  "buildInfoId": "solc-0_8_28-19932e75ff7a7929db46681cf116b20b4fc4c833"
}